{"abi":[{"type":"constructor","inputs":[{"name":"_treasury","type":"address","internalType":"address"},{"name":"subscriptionId","type":"uint256","internalType":"uint256"}],"stateMutability":"nonpayable"},{"type":"function","name":"acceptOwnership","inputs":[],"outputs":[],"stateMutability":"nonpayable"},{"type":"function","name":"allChallengeIds","inputs":[{"name":"","type":"uint256","internalType":"uint256"}],"outputs":[{"name":"","type":"bytes32","internalType":"bytes32"}],"stateMutability":"view"},{"type":"function","name":"allGameIds","inputs":[{"name":"","type":"uint256","internalType":"uint256"}],"outputs":[{"name":"","type":"bytes32","internalType":"bytes32"}],"stateMutability":"view"},{"type":"function","name":"allUserAddresses","inputs":[{"name":"","type":"uint256","internalType":"uint256"}],"outputs":[{"name":"","type":"address","internalType":"address"}],"stateMutability":"view"},{"type":"function","name":"baseDivider","inputs":[],"outputs":[{"name":"","type":"uint256","internalType":"uint256"}],"stateMutability":"view"},{"type":"function","name":"burnAddress","inputs":[],"outputs":[{"name":"","type":"address","internalType":"address"}],"stateMutability":"view"},{"type":"function","name":"callbackGasLimit","inputs":[],"outputs":[{"name":"","type":"uint32","internalType":"uint32"}],"stateMutability":"view"},{"type":"function","name":"cancelChallenge","inputs":[{"name":"_challengeId","type":"bytes32","internalType":"bytes32"}],"outputs":[],"stateMutability":"nonpayable"},{"type":"function","name":"challenges","inputs":[{"name":"","type":"bytes32","internalType":"bytes32"}],"outputs":[{"name":"challengeId","type":"bytes32","internalType":"bytes32"},{"name":"gameId","type":"bytes32","internalType":"bytes32"},{"name":"isActive","type":"bool","internalType":"bool"},{"name":"result","type":"bool","internalType":"bool"},{"name":"xpAmount","type":"uint256","internalType":"uint256"},{"name":"createTime","type":"uint256","internalType":"uint256"},{"name":"drawTime","type":"uint256","internalType":"uint256"},{"name":"creator","type":"tuple","internalType":"struct WaveChallengeFlip.User","components":[{"name":"userAddress","type":"address","internalType":"address"},{"name":"isCreator","type":"bool","internalType":"bool"},{"name":"side","type":"bool","internalType":"bool"},{"name":"challengeId","type":"bytes32","internalType":"bytes32"},{"name":"xpAmount","type":"uint256","internalType":"uint256"},{"name":"betTime","type":"uint256","internalType":"uint256"},{"name":"rewardAmount","type":"uint256","internalType":"uint256"}]},{"name":"challenger","type":"tuple","internalType":"struct WaveChallengeFlip.User","components":[{"name":"userAddress","type":"address","internalType":"address"},{"name":"isCreator","type":"bool","internalType":"bool"},{"name":"side","type":"bool","internalType":"bool"},{"name":"challengeId","type":"bytes32","internalType":"bytes32"},{"name":"xpAmount","type":"uint256","internalType":"uint256"},{"name":"betTime","type":"uint256","internalType":"uint256"},{"name":"rewardAmount","type":"uint256","internalType":"uint256"}]}],"stateMutability":"view"},{"type":"function","name":"createChallenge","inputs":[{"name":"_gameId","type":"bytes32","internalType":"bytes32"},{"name":"_xpAmount","type":"uint256","internalType":"uint256"},{"name":"_side","type":"bool","internalType":"bool"}],"outputs":[],"stateMutability":"nonpayable"},{"type":"function","name":"createGame","inputs":[{"name":"_baseToken","type":"address","internalType":"address"},{"name":"_burnFee","type":"uint8","internalType":"uint8"},{"name":"_treasuryFee","type":"uint8","internalType":"uint8"},{"name":"_minTokenAmount","type":"uint256","internalType":"uint256"}],"outputs":[],"stateMutability":"nonpayable"},{"type":"function","name":"enterChallenge","inputs":[{"name":"_challengeId","type":"bytes32","internalType":"bytes32"},{"name":"_xpAmount","type":"uint256","internalType":"uint256"},{"name":"_side","type":"bool","internalType":"bool"}],"outputs":[],"stateMutability":"nonpayable"},{"type":"function","name":"gamePools","inputs":[{"name":"","type":"bytes32","internalType":"bytes32"}],"outputs":[{"name":"baseToken","type":"address","internalType":"address"},{"name":"isActive","type":"bool","internalType":"bool"},{"name":"burnFee","type":"uint8","internalType":"uint8"},{"name":"treasuryFee","type":"uint8","internalType":"uint8"},{"name":"gameId","type":"bytes32","internalType":"bytes32"},{"name":"totalXpAmount","type":"uint256","internalType":"uint256"},{"name":"minTokenAmount","type":"uint256","internalType":"uint256"}],"stateMutability":"view"},{"type":"function","name":"getAllUserAddress","inputs":[],"outputs":[{"name":"len","type":"uint256","internalType":"uint256"},{"name":"addrs","type":"address[]","internalType":"address[]"}],"stateMutability":"view"},{"type":"function","name":"getChallengeIds","inputs":[],"outputs":[{"name":"len","type":"uint256","internalType":"uint256"},{"name":"ids","type":"bytes32[]","internalType":"bytes32[]"}],"stateMutability":"view"},{"type":"function","name":"getChallengeInfo","inputs":[{"name":"_challengeId","type":"bytes32","internalType":"bytes32"}],"outputs":[{"name":"","type":"bytes32","internalType":"bytes32"},{"name":"","type":"tuple","internalType":"struct WaveChallengeFlip.User","components":[{"name":"userAddress","type":"address","internalType":"address"},{"name":"isCreator","type":"bool","internalType":"bool"},{"name":"side","type":"bool","internalType":"bool"},{"name":"challengeId","type":"bytes32","internalType":"bytes32"},{"name":"xpAmount","type":"uint256","internalType":"uint256"},{"name":"betTime","type":"uint256","internalType":"uint256"},{"name":"rewardAmount","type":"uint256","internalType":"uint256"}]},{"name":"","type":"tuple","internalType":"struct WaveChallengeFlip.User","components":[{"name":"userAddress","type":"address","internalType":"address"},{"name":"isCreator","type":"bool","internalType":"bool"},{"name":"side","type":"bool","internalType":"bool"},{"name":"challengeId","type":"bytes32","internalType":"bytes32"},{"name":"xpAmount","type":"uint256","internalType":"uint256"},{"name":"betTime","type":"uint256","internalType":"uint256"},{"name":"rewardAmount","type":"uint256","internalType":"uint256"}]},{"name":"","type":"bool","internalType":"bool"},{"name":"","type":"bool","internalType":"bool"},{"name":"","type":"uint256","internalType":"uint256"},{"name":"","type":"uint256","internalType":"uint256"},{"name":"","type":"uint256","internalType":"uint256"}],"stateMutability":"view"},{"type":"function","name":"getGameIds","inputs":[],"outputs":[{"name":"len","type":"uint256","internalType":"uint256"},{"name":"ids","type":"bytes32[]","internalType":"bytes32[]"}],"stateMutability":"view"},{"type":"function","name":"getGameInfo","inputs":[{"name":"_gameId","type":"bytes32","internalType":"bytes32"}],"outputs":[{"name":"","type":"address","internalType":"address"},{"name":"","type":"uint8","internalType":"uint8"},{"name":"","type":"uint8","internalType":"uint8"},{"name":"","type":"uint256","internalType":"uint256"},{"name":"","type":"bytes32[]","internalType":"bytes32[]"},{"name":"","type":"uint256","internalType":"uint256"},{"name":"","type":"bool","internalType":"bool"}],"stateMutability":"view"},{"type":"function","name":"getUserHistory","inputs":[{"name":"_user","type":"address","internalType":"address"}],"outputs":[{"name":"","type":"bytes32[]","internalType":"bytes32[]"}],"stateMutability":"view"},{"type":"function","name":"isActiveChallengeId","inputs":[{"name":"","type":"bytes32","internalType":"bytes32"}],"outputs":[{"name":"","type":"bool","internalType":"bool"}],"stateMutability":"view"},{"type":"function","name":"isVRF","inputs":[],"outputs":[{"name":"","type":"bool","internalType":"bool"}],"stateMutability":"view"},{"type":"function","name":"keyHash","inputs":[],"outputs":[{"name":"","type":"bytes32","internalType":"bytes32"}],"stateMutability":"view"},{"type":"function","name":"linktoken","inputs":[],"outputs":[{"name":"","type":"address","internalType":"contract IERC20"}],"stateMutability":"view"},{"type":"function","name":"numWords","inputs":[],"outputs":[{"name":"","type":"uint32","internalType":"uint32"}],"stateMutability":"view"},{"type":"function","name":"owner","inputs":[],"outputs":[{"name":"","type":"address","internalType":"address"}],"stateMutability":"view"},{"type":"function","name":"pause","inputs":[],"outputs":[],"stateMutability":"nonpayable"},{"type":"function","name":"paused","inputs":[],"outputs":[{"name":"","type":"bool","internalType":"bool"}],"stateMutability":"view"},{"type":"function","name":"rawFulfillRandomWords","inputs":[{"name":"requestId","type":"uint256","internalType":"uint256"},{"name":"randomWords","type":"uint256[]","internalType":"uint256[]"}],"outputs":[],"stateMutability":"nonpayable"},{"type":"function","name":"requestConfirmations","inputs":[],"outputs":[{"name":"","type":"uint16","internalType":"uint16"}],"stateMutability":"view"},{"type":"function","name":"s_subscriptionId","inputs":[],"outputs":[{"name":"","type":"uint256","internalType":"uint256"}],"stateMutability":"view"},{"type":"function","name":"s_vrfCoordinator","inputs":[],"outputs":[{"name":"","type":"address","internalType":"contract IVRFCoordinatorV2Plus"}],"stateMutability":"view"},{"type":"function","name":"setCoordinator","inputs":[{"name":"_vrfCoordinator","type":"address","internalType":"address"}],"outputs":[],"stateMutability":"nonpayable"},{"type":"function","name":"setGameData","inputs":[{"name":"_gameId","type":"bytes32","internalType":"bytes32"},{"name":"_burnFee","type":"uint8","internalType":"uint8"},{"name":"_treasuryFee","type":"uint8","internalType":"uint8"},{"name":"_minTokenAmount","type":"uint256","internalType":"uint256"}],"outputs":[],"stateMutability":"nonpayable"},{"type":"function","name":"setTreasury","inputs":[{"name":"_treasury","type":"address","internalType":"address"}],"outputs":[],"stateMutability":"nonpayable"},{"type":"function","name":"setVRF","inputs":[],"outputs":[],"stateMutability":"nonpayable"},{"type":"function","name":"transferOwnership","inputs":[{"name":"to","type":"address","internalType":"address"}],"outputs":[],"stateMutability":"nonpayable"},{"type":"function","name":"treasury","inputs":[],"outputs":[{"name":"","type":"address","internalType":"address"}],"stateMutability":"view"},{"type":"function","name":"unpause","inputs":[],"outputs":[],"stateMutability":"nonpayable"},{"type":"function","name":"unsetVRF","inputs":[],"outputs":[],"stateMutability":"nonpayable"},{"type":"function","name":"userHistory","inputs":[{"name":"","type":"address","internalType":"address"},{"name":"","type":"uint256","internalType":"uint256"}],"outputs":[{"name":"","type":"bytes32","internalType":"bytes32"}],"stateMutability":"view"},{"type":"function","name":"withdraw","inputs":[{"name":"_token","type":"address","internalType":"address"},{"name":"amount","type":"uint256","internalType":"uint256"}],"outputs":[],"stateMutability":"nonpayable"},{"type":"event","name":"ChallengeCancelled","inputs":[{"name":"challengeId","type":"bytes32","indexed":true,"internalType":"bytes32"},{"name":"creator","type":"address","indexed":true,"internalType":"address"}],"anonymous":false},{"type":"event","name":"ChallengeCreated","inputs":[{"name":"challengeId","type":"bytes32","indexed":true,"internalType":"bytes32"},{"name":"creator","type":"address","indexed":true,"internalType":"address"},{"name":"xpAmount","type":"uint256","indexed":false,"internalType":"uint256"}],"anonymous":false},{"type":"event","name":"ChallengeDrawRequested","inputs":[{"name":"requestId","type":"uint256","indexed":true,"internalType":"uint256"},{"name":"challengeId","type":"bytes32","indexed":true,"internalType":"bytes32"}],"anonymous":false},{"type":"event","name":"CoordinatorSet","inputs":[{"name":"vrfCoordinator","type":"address","indexed":false,"internalType":"address"}],"anonymous":false},{"type":"event","name":"EnteredChallenge","inputs":[{"name":"challengeId","type":"bytes32","indexed":true,"internalType":"bytes32"},{"name":"user","type":"address","indexed":true,"internalType":"address"},{"name":"xpAmount","type":"uint256","indexed":false,"internalType":"uint256"}],"anonymous":false},{"type":"event","name":"FallbackRandomUsed","inputs":[{"name":"challengeId","type":"bytes32","indexed":true,"internalType":"bytes32"}],"anonymous":false},{"type":"event","name":"GameCreated","inputs":[{"name":"gameId","type":"bytes32","indexed":true,"internalType":"bytes32"},{"name":"baseToken","type":"address","indexed":true,"internalType":"address"},{"name":"minTokenAmount","type":"uint256","indexed":false,"internalType":"uint256"}],"anonymous":false},{"type":"event","name":"GameDataUpdated","inputs":[{"name":"gameId","type":"bytes32","indexed":true,"internalType":"bytes32"},{"name":"burnFee","type":"uint8","indexed":false,"internalType":"uint8"},{"name":"treasuryFee","type":"uint8","indexed":false,"internalType":"uint8"},{"name":"minTokenAmount","type":"uint256","indexed":false,"internalType":"uint256"}],"anonymous":false},{"type":"event","name":"OwnershipTransferRequested","inputs":[{"name":"from","type":"address","indexed":true,"internalType":"address"},{"name":"to","type":"address","indexed":true,"internalType":"address"}],"anonymous":false},{"type":"event","name":"OwnershipTransferred","inputs":[{"name":"from","type":"address","indexed":true,"internalType":"address"},{"name":"to","type":"address","indexed":true,"internalType":"address"}],"anonymous":false},{"type":"event","name":"Paused","inputs":[{"name":"account","type":"address","indexed":false,"internalType":"address"}],"anonymous":false},{"type":"event","name":"PoolEnded","inputs":[{"name":"gameId","type":"bytes32","indexed":true,"internalType":"bytes32"}],"anonymous":false},{"type":"event","name":"RequestFulfilled","inputs":[{"name":"requestId","type":"uint256","indexed":true,"internalType":"uint256"},{"name":"randomWords","type":"uint256[]","indexed":false,"internalType":"uint256[]"}],"anonymous":false},{"type":"event","name":"RequestSent","inputs":[{"name":"requestId","type":"uint256","indexed":true,"internalType":"uint256"},{"name":"numWords","type":"uint32","indexed":false,"internalType":"uint32"}],"anonymous":false},{"type":"event","name":"TreasuryUpdated","inputs":[{"name":"newTreasury","type":"address","indexed":false,"internalType":"address"}],"anonymous":false},{"type":"event","name":"Unpaused","inputs":[{"name":"account","type":"address","indexed":false,"internalType":"address"}],"anonymous":false},{"type":"event","name":"WinnerDrawn","inputs":[{"name":"player1","type":"address","indexed":false,"internalType":"address"},{"name":"playeer2","type":"address","indexed":false,"internalType":"address"},{"name":"wager","type":"uint256","indexed":false,"internalType":"uint256"},{"name":"result","type":"bool","indexed":false,"internalType":"bool"},{"name":"winner","type":"address","indexed":false,"internalType":"address"},{"name":"time","type":"uint256","indexed":false,"internalType":"uint256"},{"name":"reward","type":"uint256","indexed":false,"internalType":"uint256"}],"anonymous":false},{"type":"error","name":"AlreadyUsed","inputs":[]},{"type":"error","name":"AmountMismatch","inputs":[]},{"type":"error","name":"AmountTooLow","inputs":[]},{"type":"error","name":"ChallengeEnded","inputs":[]},{"type":"error","name":"ChallengeInactive","inputs":[]},{"type":"error","name":"EnforcedPause","inputs":[]},{"type":"error","name":"ExpectedPause","inputs":[]},{"type":"error","name":"GameInactive","inputs":[]},{"type":"error","name":"InvalidFeeConfig","inputs":[]},{"type":"error","name":"InvalidTreasury","inputs":[]},{"type":"error","name":"NotCreator","inputs":[]},{"type":"error","name":"OnlyCoordinatorCanFulfill","inputs":[{"name":"have","type":"address","internalType":"address"},{"name":"want","type":"address","internalType":"address"}]},{"type":"error","name":"OnlyOwnerOrCoordinator","inputs":[{"name":"have","type":"address","internalType":"address"},{"name":"owner","type":"address","internalType":"address"},{"name":"coordinator","type":"address","internalType":"address"}]},{"type":"error","name":"ReentrancyGuardReentrantCall","inputs":[]},{"type":"error","name":"RequestNotFound","inputs":[]},{"type":"error","name":"SafeERC20FailedOperation","inputs":[{"name":"token","type":"address","internalType":"address"}]},{"type":"error","name":"SameSideSelected","inputs":[]},{"type":"error","name":"SelfChallenge","inputs":[]},{"type":"error","name":"ZeroAddress","inputs":[]}],"bytecode":{"object":"0x60c06040526001600e60146101000a81548160ff02191690831515021790555034801561002a575f5ffd5b5060405161507a38038061507a833981810160405281019061004c91906104c0565b739ddfaca8183c41ad55329bdeed9f6a8d53168b1b33805f600180819055505f73ffffffffffffffffffffffffffffffffffffffff168273ffffffffffffffffffffffffffffffffffffffff16036100d9576040517f08c379a00000000000000000000000000000000000000000000000000000000081526004016100d090610558565b60405180910390fd5b8160025f6101000a81548173ffffffffffffffffffffffffffffffffffffffff021916908373ffffffffffffffffffffffffffffffffffffffff1602179055505f73ffffffffffffffffffffffffffffffffffffffff168173ffffffffffffffffffffffffffffffffffffffff161461015c5761015b8161030360201b60201c565b5b5050505f73ffffffffffffffffffffffffffffffffffffffff168173ffffffffffffffffffffffffffffffffffffffff16036101c4576040517fd92e233d00000000000000000000000000000000000000000000000000000000815260040160405180910390fd5b8060045f6101000a81548173ffffffffffffffffffffffffffffffffffffffff021916908373ffffffffffffffffffffffffffffffffffffffff1602179055505061dead73ffffffffffffffffffffffffffffffffffffffff168273ffffffffffffffffffffffffffffffffffffffff160361026c576040517f14bcf5c800000000000000000000000000000000000000000000000000000000815260040160405180910390fd5b81600e5f6101000a81548173ffffffffffffffffffffffffffffffffffffffff021916908373ffffffffffffffffffffffffffffffffffffffff160217905550806080818152505073779877a7b0d9e8603169ddbd7836e478b462478973ffffffffffffffffffffffffffffffffffffffff1660a08173ffffffffffffffffffffffffffffffffffffffff168152505050506105de565b3373ffffffffffffffffffffffffffffffffffffffff168173ffffffffffffffffffffffffffffffffffffffff1603610371576040517f08c379a0000000000000000000000000000000000000000000000000000000008152600401610368906105c0565b60405180910390fd5b8060035f6101000a81548173ffffffffffffffffffffffffffffffffffffffff021916908373ffffffffffffffffffffffffffffffffffffffff1602179055508073ffffffffffffffffffffffffffffffffffffffff1660025f9054906101000a900473ffffffffffffffffffffffffffffffffffffffff1673ffffffffffffffffffffffffffffffffffffffff167fed8889f560326eb138920d842192f0eb3dd22b4f139c87a2c57538e05bae127860405160405180910390a350565b5f5ffd5b5f73ffffffffffffffffffffffffffffffffffffffff82169050919050565b5f61045c82610433565b9050919050565b61046c81610452565b8114610476575f5ffd5b50565b5f8151905061048781610463565b92915050565b5f819050919050565b61049f8161048d565b81146104a9575f5ffd5b50565b5f815190506104ba81610496565b92915050565b5f5f604083850312156104d6576104d561042f565b5b5f6104e385828601610479565b92505060206104f4858286016104ac565b9150509250929050565b5f82825260208201905092915050565b7f43616e6e6f7420736574206f776e657220746f207a65726f00000000000000005f82015250565b5f6105426018836104fe565b915061054d8261050e565b602082019050919050565b5f6020820190508181035f83015261056f81610536565b9050919050565b7f43616e6e6f74207472616e7366657220746f2073656c660000000000000000005f82015250565b5f6105aa6017836104fe565b91506105b582610576565b602082019050919050565b5f6020820190508181035f8301526105d78161059e565b9050919050565b60805160a051614a746106065f395f61101b01525f818161192f01526131d40152614a745ff3fe608060405234801561000f575f5ffd5b5060043610610250575f3560e01c806379ba509711610144578063ad6829cf116100c1578063e1b4db7111610085578063e1b4db71146106bc578063ec018d6e146106da578063f0f442601461070a578063f2fde38b14610726578063f3fef3a314610742578063fba2f4421461075e57610250565b8063ad6829cf1461060a578063b0fb162f14610614578063b2c553b214610632578063c1e69b6614610668578063d526bb80146106a057610250565b80638ac00021116101085780638ac00021146105755780638da5cb5b146105935780638ea98117146105b15780639eccacf6146105cd5780639f668bba146105eb57610250565b806379ba5097146104f05780637a514775146104fa5780637ccfd7fc146105315780637f205caa1461054f5780638456cb591461056b57610250565b80633f4ba83a116101d25780635a5cfc1c116101965780635a5cfc1c146104485780635c975abb1461047857806361728f391461049657806361d027b3146104b457806370d5ae05146104d257610250565b80633f4ba83a1461038957806348696151146103935780634fb3d3b1146103b25780635127953b146103e2578063520b35a21461041257610250565b8063149440d911610219578063149440d9146102e25780631fe543e31461030157806322e8b9901461031d57806324f746971461034d5780632ae7543f1461036b57610250565b80620476ba14610254578063064436a11461027057806306559cf71461028c5780630f23a3c11461029657806312f8a6ab146102b2575b5f5ffd5b61026e60048036038101906102699190613814565b61077c565b005b61028a6004803603810190610285919061389a565b610b23565b005b610294610c14565b005b6102b060048036038101906102ab9190613958565b610c38565b005b6102cc60048036038101906102c791906139bc565b610dec565b6040516102d991906139f6565b60405180910390f35b6102ea610e27565b6040516102f8929190613ad5565b60405180910390f35b61031b60048036038101906103169190613b64565b610f23565b005b61033760048036038101906103329190613bc1565b610fe7565b6040516103449190613c0e565b60405180910390f35b610355611012565b6040516103629190613c45565b60405180910390f35b610373611019565b6040516103809190613cb9565b60405180910390f35b61039161103d565b005b61039b61104f565b6040516103a9929190613d89565b60405180910390f35b6103cc60048036038101906103c79190613db7565b6110fe565b6040516103d99190613de2565b60405180910390f35b6103fc60048036038101906103f791906139bc565b611191565b6040516104099190613c0e565b60405180910390f35b61042c60048036038101906104279190613e02565b6111b1565b60405161043f9796959493929190613e4b565b60405180910390f35b610462600480360381019061045d91906139bc565b611232565b60405161046f9190613c0e565b60405180910390f35b610480611252565b60405161048d9190613eb8565b60405180910390f35b61049e611266565b6040516104ab9190613c0e565b60405180910390f35b6104bc61128c565b6040516104c991906139f6565b60405180910390f35b6104da6112b1565b6040516104e791906139f6565b60405180910390f35b6104f86112b7565b005b610514600480360381019061050f9190613e02565b611448565b604051610528989796959493929190613f7b565b60405180910390f35b610539611649565b6040516105469190613c45565b60405180910390f35b61056960048036038101906105649190613e02565b61164e565b005b61057361191b565b005b61057d61192d565b60405161058a9190613ffd565b60405180910390f35b61059b611951565b6040516105a891906139f6565b60405180910390f35b6105cb60048036038101906105c69190613db7565b611979565b005b6105d5611b56565b6040516105e29190614036565b60405180910390f35b6105f3611b7b565b604051610601929190613d89565b60405180910390f35b610612611c2a565b005b61061c611c4f565b604051610629919061406b565b60405180910390f35b61064c60048036038101906106479190613e02565b611c54565b60405161065f9796959493929190614084565b60405180910390f35b610682600480360381019061067d9190613e02565b611d3e565b604051610697999897969594939291906140f8565b60405180910390f35b6106ba60048036038101906106b59190613814565b611f15565b005b6106c461236d565b6040516106d19190613ffd565b60405180910390f35b6106f460048036038101906106ef9190613e02565b612372565b6040516107019190613eb8565b60405180910390f35b610724600480360381019061071f9190613db7565b61238f565b005b610740600480360381019061073b9190613db7565b612480565b005b61075c60048036038101906107579190613bc1565b612494565b005b6107666124d3565b6040516107739190613eb8565b60405180910390f35b6107846124e6565b61078c612527565b5f60075f8581526020019081526020015f209050805f0160149054906101000a900460ff166107e7576040517fe76abfdd00000000000000000000000000000000000000000000000000000000815260040160405180910390fd5b8060030154831015610825576040517f1fbaba3500000000000000000000000000000000000000000000000000000000815260040160405180910390fd5b5f334260405160200161083992919061423c565b6040516020818303038152906040528051906020012090508060085f8381526020019081526020015f205f01819055508460085f8381526020019081526020015f2060010181905550600160085f8381526020019081526020015f206002015f6101000a81548160ff0219169083151502179055508360085f8381526020019081526020015f20600301819055504260085f8381526020019081526020015f20600401819055506040518060e001604052803373ffffffffffffffffffffffffffffffffffffffff16815260200160011515815260200184151581526020018281526020018581526020014281526020015f81525060085f8381526020019081526020015f206006015f820151815f015f6101000a81548173ffffffffffffffffffffffffffffffffffffffff021916908373ffffffffffffffffffffffffffffffffffffffff1602179055506020820151815f0160146101000a81548160ff0219169083151502179055506040820151815f0160156101000a81548160ff021916908315150217905550606082015181600101556080820151816002015560a0820151816003015560c082015181600401559050506001600a5f8381526020019081526020015f205f6101000a81548160ff021916908315150217905550600c81908060018154018082558091505060019003905f5260205f20015f909190919091505560075f8681526020019081526020015f2060040181908060018154018082558091505060019003905f5260205f20015f9091909190915055610ac5333086855f015f9054906101000a900473ffffffffffffffffffffffffffffffffffffffff1673ffffffffffffffffffffffffffffffffffffffff1661256d909392919063ffffffff16565b3373ffffffffffffffffffffffffffffffffffffffff16817fd26ab04488ec637d788718439a7fb88013e8272c2ab9d9014cb0865365b054b386604051610b0c9190613ffd565b60405180910390a35050610b1e6125ef565b505050565b610b2b6125f8565b610b336124e6565b60648284610b41919061429f565b60ff161115610b7c576040517f5601467a00000000000000000000000000000000000000000000000000000000815260040160405180910390fd5b5f60075f8681526020019081526020015f20905083815f0160156101000a81548160ff021916908360ff16021790555082815f0160166101000a81548160ff021916908360ff160217905550818160030181905550847f2a101b7c888978a6e4c9ae65e40383f0b87c7b8ca2b87dde880c5076abe7d5e1858585604051610c05939291906142d3565b60405180910390a25050505050565b610c1c6125f8565b5f600e60146101000a81548160ff021916908315150217905550565b610c406125f8565b60648284610c4e919061429f565b60ff161115610c89576040517f5601467a00000000000000000000000000000000000000000000000000000000815260040160405180910390fd5b5f3342604051602001610c9d929190614352565b6040516020818303038152906040528051906020012090505f60075f8381526020019081526020015f20905085815f015f6101000a81548173ffffffffffffffffffffffffffffffffffffffff021916908373ffffffffffffffffffffffffffffffffffffffff16021790555081816001018190555084815f0160156101000a81548160ff021916908360ff16021790555083815f0160166101000a81548160ff021916908360ff1602179055508281600301819055506001815f0160146101000a81548160ff021916908315150217905550600b82908060018154018082558091505060019003905f5260205f20015f90919091909150558573ffffffffffffffffffffffffffffffffffffffff16827e06379582cf33f082958411b512c6d1b9888095de98bc1f9532e3f16533615285604051610ddc9190613ffd565b60405180910390a3505050505050565b600d8181548110610dfb575f80fd5b905f5260205f20015f915054906101000a900473ffffffffffffffffffffffffffffffffffffffff1681565b5f6060600d8054905091508167ffffffffffffffff811115610e4c57610e4b614388565b5b604051908082528060200260200182016040528015610e7a5781602001602082028036833780820191505090505b5090505f5f90505b82811015610f1e57600d8181548110610e9e57610e9d6143b5565b5b905f5260205f20015f9054906101000a900473ffffffffffffffffffffffffffffffffffffffff16828281518110610ed957610ed86143b5565b5b602002602001019073ffffffffffffffffffffffffffffffffffffffff16908173ffffffffffffffffffffffffffffffffffffffff1681525050806001019050610e82565b509091565b60045f9054906101000a900473ffffffffffffffffffffffffffffffffffffffff1673ffffffffffffffffffffffffffffffffffffffff163373ffffffffffffffffffffffffffffffffffffffff1614610fd7573360045f9054906101000a900473ffffffffffffffffffffffffffffffffffffffff166040517f1cf993f4000000000000000000000000000000000000000000000000000000008152600401610fce9291906143e2565b60405180910390fd5b610fe2838383612689565b505050565b6009602052815f5260405f208181548110611000575f80fd5b905f5260205f20015f91509150505481565b620493e081565b7f000000000000000000000000000000000000000000000000000000000000000081565b6110456125f8565b61104d612837565b565b5f6060600c8054905091508167ffffffffffffffff81111561107457611073614388565b5b6040519080825280602002602001820160405280156110a25781602001602082028036833780820191505090505b5090505f5f90505b828110156110f957600c81815481106110c6576110c56143b5565b5b905f5260205f2001548282815181106110e2576110e16143b5565b5b6020026020010181815250508060010190506110aa565b509091565b606060095f8373ffffffffffffffffffffffffffffffffffffffff1673ffffffffffffffffffffffffffffffffffffffff1681526020019081526020015f2080548060200260200160405190810160405280929190818152602001828054801561118557602002820191905f5260205f20905b815481526020019060010190808311611171575b50505050509050919050565b600c81815481106111a0575f80fd5b905f5260205f20015f915090505481565b6007602052805f5260405f205f91509050805f015f9054906101000a900473ffffffffffffffffffffffffffffffffffffffff1690805f0160149054906101000a900460ff1690805f0160159054906101000a900460ff1690805f0160169054906101000a900460ff16908060010154908060020154908060030154905087565b600b8181548110611241575f80fd5b905f5260205f20015f915090505481565b5f5f5f9054906101000a900460ff16905090565b7f787d74caea10b2b357790d5b5247c2f63d1d91572a9846f780606e4d953677ae5f1b81565b600e5f9054906101000a900473ffffffffffffffffffffffffffffffffffffffff1681565b61dead81565b60035f9054906101000a900473ffffffffffffffffffffffffffffffffffffffff1673ffffffffffffffffffffffffffffffffffffffff163373ffffffffffffffffffffffffffffffffffffffff1614611346576040517f08c379a000000000000000000000000000000000000000000000000000000000815260040161133d90614463565b60405180910390fd5b5f60025f9054906101000a900473ffffffffffffffffffffffffffffffffffffffff1690503360025f6101000a81548173ffffffffffffffffffffffffffffffffffffffff021916908373ffffffffffffffffffffffffffffffffffffffff1602179055505f60035f6101000a81548173ffffffffffffffffffffffffffffffffffffffff021916908373ffffffffffffffffffffffffffffffffffffffff1602179055503373ffffffffffffffffffffffffffffffffffffffff168173ffffffffffffffffffffffffffffffffffffffff167f8be0079c531659141344cd1fd0a4f28419497f9722a3daafe3b4186f6b6457e060405160405180910390a350565b5f611451613652565b611459613652565b5f5f5f5f5f5f60085f8b81526020019081526020015f20905080600101548160060182600b01836002015f9054906101000a900460ff168460020160019054906101000a900460ff16856004015486600501548760030154866040518060e00160405290815f82015f9054906101000a900473ffffffffffffffffffffffffffffffffffffffff1673ffffffffffffffffffffffffffffffffffffffff1673ffffffffffffffffffffffffffffffffffffffff1681526020015f820160149054906101000a900460ff161515151581526020015f820160159054906101000a900460ff161515151581526020016001820154815260200160028201548152602001600382015481526020016004820154815250509650856040518060e00160405290815f82015f9054906101000a900473ffffffffffffffffffffffffffffffffffffffff1673ffffffffffffffffffffffffffffffffffffffff1673ffffffffffffffffffffffffffffffffffffffff1681526020015f820160149054906101000a900460ff161515151581526020015f820160159054906101000a900460ff1615151515815260200160018201548152602001600282015481526020016003820154815260200160048201548152505095509850985098509850985098509850985050919395975091939597565b600181565b611656612527565b61165e6124e6565b5f60085f8381526020019081526020015f209050806002015f9054906101000a900460ff166116b9576040517fab291b7e00000000000000000000000000000000000000000000000000000000815260040160405180910390fd5b3373ffffffffffffffffffffffffffffffffffffffff16816006015f015f9054906101000a900473ffffffffffffffffffffffffffffffffffffffff1673ffffffffffffffffffffffffffffffffffffffff1614611743576040517f93687c0b00000000000000000000000000000000000000000000000000000000815260040160405180910390fd5b5f73ffffffffffffffffffffffffffffffffffffffff1681600b015f015f9054906101000a900473ffffffffffffffffffffffffffffffffffffffff1673ffffffffffffffffffffffffffffffffffffffff16146117cd576040517f7b8c821000000000000000000000000000000000000000000000000000000000815260040160405180910390fd5b5f60075f836001015481526020019081526020015f20905061185b826006015f015f9054906101000a900473ffffffffffffffffffffffffffffffffffffffff168360030154835f015f9054906101000a900473ffffffffffffffffffffffffffffffffffffffff1673ffffffffffffffffffffffffffffffffffffffff166128979092919063ffffffff16565b5f826002015f6101000a81548160ff0219169083151502179055505f600a5f8581526020019081526020015f205f6101000a81548160ff0219169083151502179055506118a9600c84612916565b6118ca60075f846001015481526020019081526020015f2060040184612916565b3373ffffffffffffffffffffffffffffffffffffffff16837f1090a8c99117fe8b8df73409cd9d66aa12ca68d21bc581873e30586c199713f860405160405180910390a350506119186125ef565b50565b6119236125f8565b61192b6129d0565b565b7f000000000000000000000000000000000000000000000000000000000000000081565b5f60025f9054906101000a900473ffffffffffffffffffffffffffffffffffffffff16905090565b611981611951565b73ffffffffffffffffffffffffffffffffffffffff163373ffffffffffffffffffffffffffffffffffffffff1614158015611a09575060045f9054906101000a900473ffffffffffffffffffffffffffffffffffffffff1673ffffffffffffffffffffffffffffffffffffffff163373ffffffffffffffffffffffffffffffffffffffff1614155b15611a775733611a17611951565b60045f9054906101000a900473ffffffffffffffffffffffffffffffffffffffff166040517f061db9c1000000000000000000000000000000000000000000000000000000008152600401611a6e93929190614481565b60405180910390fd5b5f73ffffffffffffffffffffffffffffffffffffffff168173ffffffffffffffffffffffffffffffffffffffff1603611adc576040517fd92e233d00000000000000000000000000000000000000000000000000000000815260040160405180910390fd5b8060045f6101000a81548173ffffffffffffffffffffffffffffffffffffffff021916908373ffffffffffffffffffffffffffffffffffffffff1602179055507fd1a6a14209a385a964d036e404cb5cfb71f4000cdb03c9366292430787261be681604051611b4b91906139f6565b60405180910390a150565b60045f9054906101000a900473ffffffffffffffffffffffffffffffffffffffff1681565b5f6060600b8054905091508167ffffffffffffffff811115611ba057611b9f614388565b5b604051908082528060200260200182016040528015611bce5781602001602082028036833780820191505090505b5090505f5f90505b82811015611c2557600b8181548110611bf257611bf16143b5565b5b905f5260205f200154828281518110611c0e57611c0d6143b5565b5b602002602001018181525050806001019050611bd6565b509091565b611c326125f8565b6001600e60146101000a81548160ff021916908315150217905550565b600381565b5f5f5f5f60605f5f5f60075f8a81526020019081526020015f209050805f015f9054906101000a900473ffffffffffffffffffffffffffffffffffffffff16815f0160159054906101000a900460ff16825f0160169054906101000a900460ff168360020154846004018560030154865f0160149054906101000a900460ff1682805480602002602001604051908101604052809291908181526020018280548015611d1d57602002820191905f5260205f20905b815481526020019060010190808311611d09575b50505050509250975097509750975097509750975050919395979092949650565b6008602052805f5260405f205f91509050805f015490806001015490806002015f9054906101000a900460ff16908060020160019054906101000a900460ff1690806003015490806004015490806005015490806006016040518060e00160405290815f82015f9054906101000a900473ffffffffffffffffffffffffffffffffffffffff1673ffffffffffffffffffffffffffffffffffffffff1673ffffffffffffffffffffffffffffffffffffffff1681526020015f820160149054906101000a900460ff161515151581526020015f820160159054906101000a900460ff161515151581526020016001820154815260200160028201548152602001600382015481526020016004820154815250509080600b016040518060e00160405290815f82015f9054906101000a900473ffffffffffffffffffffffffffffffffffffffff1673ffffffffffffffffffffffffffffffffffffffff1673ffffffffffffffffffffffffffffffffffffffff1681526020015f820160149054906101000a900460ff161515151581526020015f820160159054906101000a900460ff16151515158152602001600182015481526020016002820154815260200160038201548152602001600482015481525050905089565b611f1d6124e6565b611f25612527565b5f60085f8581526020019081526020015f209050806002015f9054906101000a900460ff16611f80576040517fab291b7e00000000000000000000000000000000000000000000000000000000815260040160405180910390fd5b3373ffffffffffffffffffffffffffffffffffffffff16816006015f015f9054906101000a900473ffffffffffffffffffffffffffffffffffffffff1673ffffffffffffffffffffffffffffffffffffffff160361200a576040517f706cd38100000000000000000000000000000000000000000000000000000000815260040160405180910390fd5b80600301548314612047576040517f55e97b0d00000000000000000000000000000000000000000000000000000000815260040160405180910390fd5b806006015f0160159054906101000a900460ff16151582151503612097576040517fb91b3f1e00000000000000000000000000000000000000000000000000000000815260040160405180910390fd5b5f60075f836001015481526020019081526020015f2090506040518060e001604052803373ffffffffffffffffffffffffffffffffffffffff1681526020015f1515815260200184151581526020018681526020018581526020014281526020015f81525082600b015f820151815f015f6101000a81548173ffffffffffffffffffffffffffffffffffffffff021916908373ffffffffffffffffffffffffffffffffffffffff1602179055506020820151815f0160146101000a81548160ff0219169083151502179055506040820151815f0160156101000a81548160ff021916908315150217905550606082015181600101556080820151816002015560a0820151816003015560c082015181600401559050505f600a5f8781526020019081526020015f205f6101000a81548160ff021916908315150217905550612224333086845f015f9054906101000a900473ffffffffffffffffffffffffffffffffffffffff1673ffffffffffffffffffffffffffffffffffffffff1661256d909392919063ffffffff16565b5f1515600e60149054906101000a900460ff161515036122bd575f60014361224c91906144b6565b4044423033604051602001612265959493929190614509565b604051602081830303815290604052805190602001205f1c9050857f98323e33bc986e61ec701a67f46e1071fcf7f175d531d954b28f705869cf69f660405160405180910390a26122b7868286612a31565b5061230f565b5f6122c75f613161565b90508560065f8381526020019081526020015f208190555085817fa5cfcd9975444edc9ad8e9e293b6531c6f61c39d1d7a87d60e90e361ce2f8b4660405160405180910390a3505b3373ffffffffffffffffffffffffffffffffffffffff16857fa19ca1a746ff10803168821ae3f7035a09457badacd538b792bb1969db69b444866040516123569190613ffd565b60405180910390a350506123686125ef565b505050565b606481565b600a602052805f5260405f205f915054906101000a900460ff1681565b6123976125f8565b61239f6124e6565b61dead73ffffffffffffffffffffffffffffffffffffffff168173ffffffffffffffffffffffffffffffffffffffff1603612406576040517f14bcf5c800000000000000000000000000000000000000000000000000000000815260040160405180910390fd5b80600e5f6101000a81548173ffffffffffffffffffffffffffffffffffffffff021916908373ffffffffffffffffffffffffffffffffffffffff1602179055507f7dae230f18360d76a040c81f050aa14eb9d6dc7901b20fc5d855e2a20fe814d18160405161247591906139f6565b60405180910390a150565b6124886125f8565b612491816133ac565b50565b61249c6125f8565b6124a46124e6565b6124cf33828473ffffffffffffffffffffffffffffffffffffffff166128979092919063ffffffff16565b5050565b600e60149054906101000a900460ff1681565b6124ee611252565b15612525576040517fd93c066500000000000000000000000000000000000000000000000000000000815260040160405180910390fd5b565b600260015403612563576040517f3ee5aeb500000000000000000000000000000000000000000000000000000000815260040160405180910390fd5b6002600181905550565b6125e9848573ffffffffffffffffffffffffffffffffffffffff166323b872dd8686866040516024016125a293929190614567565b604051602081830303815290604052915060e01b6020820180517bffffffffffffffffffffffffffffffffffffffffffffffffffffffff83818316178352505050506134d8565b50505050565b60018081905550565b60025f9054906101000a900473ffffffffffffffffffffffffffffffffffffffff1673ffffffffffffffffffffffffffffffffffffffff163373ffffffffffffffffffffffffffffffffffffffff1614612687576040517f08c379a000000000000000000000000000000000000000000000000000000000815260040161267e906145e6565b60405180910390fd5b565b612691612527565b60055f8481526020019081526020015f205f0160019054906101000a900460ff166126e8576040517f4b13b31e00000000000000000000000000000000000000000000000000000000815260040160405180910390fd5b600160055f8581526020019081526020015f205f015f6101000a81548160ff021916908315150217905550818160055f8681526020019081526020015f2060010191906127369291906136a2565b50827ffe2e2d779dba245964d4e3ef9b994be63856fd568bf7d3ca9e224755cb1bd54d838360405161276992919061467c565b60405180910390a25f60065f8581526020019081526020015f205490506127cd8184845f81811061279d5761279c6143b5565b5b9050602002013560085f8581526020019081526020015f20600b015f0160159054906101000a900460ff16612a31565b60065f8581526020019081526020015f205f905560055f8581526020019081526020015f205f5f82015f6101000a81549060ff02191690555f820160016101000a81549060ff0219169055600182015f61282791906136ed565b5050506128326125ef565b505050565b61283f613573565b5f5f5f6101000a81548160ff0219169083151502179055507f5db9ee0a495bf2e6ff9c91a7834c1ba4fdd244a5e8aa4e537bd38aeae4b073aa6128806135b3565b60405161288d91906139f6565b60405180910390a1565b612911838473ffffffffffffffffffffffffffffffffffffffff1663a9059cbb85856040516024016128ca92919061469e565b604051602081830303815290604052915060e01b6020820180517bffffffffffffffffffffffffffffffffffffffffffffffffffffffff83818316178352505050506134d8565b505050565b5f828054905090505f5f90505b818110156129ca578284828154811061293f5761293e6143b5565b5b905f5260205f200154036129bd578360018361295b91906144b6565b8154811061296c5761296b6143b5565b5b905f5260205f200154848281548110612988576129876143b5565b5b905f5260205f200181905550838054806129a5576129a46146c5565b5b600190038181905f5260205f20015f905590556129ca565b8080600101915050612923565b50505050565b6129d86124e6565b60015f5f6101000a81548160ff0219169083151502179055507f62e78cea01bee320cd4e420270b5ea74000d11b0c9f74754ebdbfc544b05a258612a1a6135b3565b604051612a2791906139f6565b60405180910390a1565b5f60085f8581526020019081526020015f209050806002015f9054906101000a900460ff16612a8c576040517fc596169500000000000000000000000000000000000000000000000000000000815260040160405180910390fd5b5f816002015f6101000a81548160ff0219169083151502179055505f816003015490505f60075f846001015481526020019081526020015f2090505f6064825f0160159054906101000a900460ff1660ff1684612ae991906146f2565b612af39190614760565b90505f6064835f0160169054906101000a900460ff1660ff1685612b1791906146f2565b612b219190614760565b90505f8183600287612b3391906146f2565b612b3d91906144b6565b612b4791906144b6565b9050612b9861dead84865f015f9054906101000a900473ffffffffffffffffffffffffffffffffffffffff1673ffffffffffffffffffffffffffffffffffffffff166128979092919063ffffffff16565b612c06600e5f9054906101000a900473ffffffffffffffffffffffffffffffffffffffff1683865f015f9054906101000a900473ffffffffffffffffffffffffffffffffffffffff1673ffffffffffffffffffffffffffffffffffffffff166128979092919063ffffffff16565b5f60095f88600b015f015f9054906101000a900473ffffffffffffffffffffffffffffffffffffffff1673ffffffffffffffffffffffffffffffffffffffff1673ffffffffffffffffffffffffffffffffffffffff1681526020019081526020015f208054905003612cf857600d86600b015f015f9054906101000a900473ffffffffffffffffffffffffffffffffffffffff16908060018154018082558091505060019003905f5260205f20015f9091909190916101000a81548173ffffffffffffffffffffffffffffffffffffffff021916908373ffffffffffffffffffffffffffffffffffffffff1602179055505b5f60095f886006015f015f9054906101000a900473ffffffffffffffffffffffffffffffffffffffff1673ffffffffffffffffffffffffffffffffffffffff1673ffffffffffffffffffffffffffffffffffffffff1681526020019081526020015f208054905003612dea57600d866006015f015f9054906101000a900473ffffffffffffffffffffffffffffffffffffffff16908060018154018082558091505060019003905f5260205f20015f9091909190916101000a81548173ffffffffffffffffffffffffffffffffffffffff021916908373ffffffffffffffffffffffffffffffffffffffff1602179055505b5f6001808a161490505f8815158215151490505f8115612f51578389600b01600401819055505f8960020160016101000a81548160ff021916908315150217905550612e9e89600b015f015f9054906101000a900473ffffffffffffffffffffffffffffffffffffffff1685895f015f9054906101000a900473ffffffffffffffffffffffffffffffffffffffff1673ffffffffffffffffffffffffffffffffffffffff166128979092919063ffffffff16565b60095f8a600b015f015f9054906101000a900473ffffffffffffffffffffffffffffffffffffffff1673ffffffffffffffffffffffffffffffffffffffff1673ffffffffffffffffffffffffffffffffffffffff1681526020019081526020015f208c908060018154018082558091505060019003905f5260205f20015f909190919091505588600b015f015f9054906101000a900473ffffffffffffffffffffffffffffffffffffffff16905061309b565b83896006016004018190555060018960020160016101000a81548160ff021916908315150217905550612fec896006015f015f9054906101000a900473ffffffffffffffffffffffffffffffffffffffff1685895f015f9054906101000a900473ffffffffffffffffffffffffffffffffffffffff1673ffffffffffffffffffffffffffffffffffffffff166128979092919063ffffffff16565b60095f8a6006015f015f9054906101000a900473ffffffffffffffffffffffffffffffffffffffff1673ffffffffffffffffffffffffffffffffffffffff1673ffffffffffffffffffffffffffffffffffffffff1681526020019081526020015f208c908060018154018082558091505060019003905f5260205f20015f9091909190915055886006015f015f9054906101000a900473ffffffffffffffffffffffffffffffffffffffff1690505b42896005018190555087876002015f8282546130b79190614790565b925050819055507f6ef12b55183948c602c4661fe105817dc7be5320f005d5548b36e508f18fef59896006015f015f9054906101000a900473ffffffffffffffffffffffffffffffffffffffff168a600b015f015f9054906101000a900473ffffffffffffffffffffffffffffffffffffffff168b6003015486858e600501548a60405161314b97969594939291906147c3565b60405180910390a1505050505050505050505050565b5f60045f9054906101000a900473ffffffffffffffffffffffffffffffffffffffff1673ffffffffffffffffffffffffffffffffffffffff16639b1c385e6040518060c001604052807f787d74caea10b2b357790d5b5247c2f63d1d91572a9846f780606e4d953677ae5f1b81526020017f00000000000000000000000000000000000000000000000000000000000000008152602001600361ffff168152602001620493e063ffffffff168152602001600163ffffffff16815260200161323860405180602001604052808815158152506135ba565b8152506040518263ffffffff1660e01b81526004016132579190614944565b6020604051808303815f875af1158015613273573d5f5f3e3d5ffd5b505050506040513d601f19601f820116820180604052508101906132979190614978565b905060405180606001604052805f151581526020016001151581526020015f67ffffffffffffffff8111156132cf576132ce614388565b5b6040519080825280602002602001820160405280156132fd5781602001602082028036833780820191505090505b5081525060055f8381526020019081526020015f205f820151815f015f6101000a81548160ff0219169083151502179055506020820151815f0160016101000a81548160ff021916908315150217905550604082015181600101908051906020019061336a92919061370b565b50905050807fcc58b13ad3eab50626c6a6300b1d139cd6ebb1688a7cced9461c2f7e762665ee600160405161339f9190613c45565b60405180910390a2919050565b3373ffffffffffffffffffffffffffffffffffffffff168173ffffffffffffffffffffffffffffffffffffffff160361341a576040517f08c379a0000000000000000000000000000000000000000000000000000000008152600401613411906149ed565b60405180910390fd5b8060035f6101000a81548173ffffffffffffffffffffffffffffffffffffffff021916908373ffffffffffffffffffffffffffffffffffffffff1602179055508073ffffffffffffffffffffffffffffffffffffffff1660025f9054906101000a900473ffffffffffffffffffffffffffffffffffffffff1673ffffffffffffffffffffffffffffffffffffffff167fed8889f560326eb138920d842192f0eb3dd22b4f139c87a2c57538e05bae127860405160405180910390a350565b5f5f60205f8451602086015f885af1806134f7576040513d5f823e3d81fd5b3d92505f519150505f821461351057600181141561352b565b5f8473ffffffffffffffffffffffffffffffffffffffff163b145b1561356d57836040517f5274afe700000000000000000000000000000000000000000000000000000000815260040161356491906139f6565b60405180910390fd5b50505050565b61357b611252565b6135b1576040517f8dfc202b00000000000000000000000000000000000000000000000000000000815260040160405180910390fd5b565b5f33905090565b60607f92fd13387c7fe7befbc38d303d6468778fb9731bc4583f17d92989c6fcfdeaaa826040516024016135ee9190614a25565b604051602081830303815290604052907bffffffffffffffffffffffffffffffffffffffffffffffffffffffff19166020820180517bffffffffffffffffffffffffffffffffffffffffffffffffffffffff83818316178352505050509050919050565b6040518060e001604052805f73ffffffffffffffffffffffffffffffffffffffff1681526020015f151581526020015f151581526020015f81526020015f81526020015f81526020015f81525090565b828054828255905f5260205f209081019282156136dc579160200282015b828111156136db5782358255916020019190600101906136c0565b5b5090506136e99190613756565b5090565b5080545f8255905f5260205f20908101906137089190613756565b50565b828054828255905f5260205f20908101928215613745579160200282015b82811115613744578251825591602001919060010190613729565b5b5090506137529190613756565b5090565b5b8082111561376d575f815f905550600101613757565b5090565b5f5ffd5b5f5ffd5b5f819050919050565b61378b81613779565b8114613795575f5ffd5b50565b5f813590506137a681613782565b92915050565b5f819050919050565b6137be816137ac565b81146137c8575f5ffd5b50565b5f813590506137d9816137b5565b92915050565b5f8115159050919050565b6137f3816137df565b81146137fd575f5ffd5b50565b5f8135905061380e816137ea565b92915050565b5f5f5f6060848603121561382b5761382a613771565b5b5f61383886828701613798565b9350506020613849868287016137cb565b925050604061385a86828701613800565b9150509250925092565b5f60ff82169050919050565b61387981613864565b8114613883575f5ffd5b50565b5f8135905061389481613870565b92915050565b5f5f5f5f608085870312156138b2576138b1613771565b5b5f6138bf87828801613798565b94505060206138d087828801613886565b93505060406138e187828801613886565b92505060606138f2878288016137cb565b91505092959194509250565b5f73ffffffffffffffffffffffffffffffffffffffff82169050919050565b5f613927826138fe565b9050919050565b6139378161391d565b8114613941575f5ffd5b50565b5f813590506139528161392e565b92915050565b5f5f5f5f608085870312156139705761396f613771565b5b5f61397d87828801613944565b945050602061398e87828801613886565b935050604061399f87828801613886565b92505060606139b0878288016137cb565b91505092959194509250565b5f602082840312156139d1576139d0613771565b5b5f6139de848285016137cb565b91505092915050565b6139f08161391d565b82525050565b5f602082019050613a095f8301846139e7565b92915050565b613a18816137ac565b82525050565b5f81519050919050565b5f82825260208201905092915050565b5f819050602082019050919050565b613a508161391d565b82525050565b5f613a618383613a47565b60208301905092915050565b5f602082019050919050565b5f613a8382613a1e565b613a8d8185613a28565b9350613a9883613a38565b805f5b83811015613ac8578151613aaf8882613a56565b9750613aba83613a6d565b925050600181019050613a9b565b5085935050505092915050565b5f604082019050613ae85f830185613a0f565b8181036020830152613afa8184613a79565b90509392505050565b5f5ffd5b5f5ffd5b5f5ffd5b5f5f83601f840112613b2457613b23613b03565b5b8235905067ffffffffffffffff811115613b4157613b40613b07565b5b602083019150836020820283011115613b5d57613b5c613b0b565b5b9250929050565b5f5f5f60408486031215613b7b57613b7a613771565b5b5f613b88868287016137cb565b935050602084013567ffffffffffffffff811115613ba957613ba8613775565b5b613bb586828701613b0f565b92509250509250925092565b5f5f60408385031215613bd757613bd6613771565b5b5f613be485828601613944565b9250506020613bf5858286016137cb565b9150509250929050565b613c0881613779565b82525050565b5f602082019050613c215f830184613bff565b92915050565b5f63ffffffff82169050919050565b613c3f81613c27565b82525050565b5f602082019050613c585f830184613c36565b92915050565b5f819050919050565b5f613c81613c7c613c77846138fe565b613c5e565b6138fe565b9050919050565b5f613c9282613c67565b9050919050565b5f613ca382613c88565b9050919050565b613cb381613c99565b82525050565b5f602082019050613ccc5f830184613caa565b92915050565b5f81519050919050565b5f82825260208201905092915050565b5f819050602082019050919050565b613d0481613779565b82525050565b5f613d158383613cfb565b60208301905092915050565b5f602082019050919050565b5f613d3782613cd2565b613d418185613cdc565b9350613d4c83613cec565b805f5b83811015613d7c578151613d638882613d0a565b9750613d6e83613d21565b925050600181019050613d4f565b5085935050505092915050565b5f604082019050613d9c5f830185613a0f565b8181036020830152613dae8184613d2d565b90509392505050565b5f60208284031215613dcc57613dcb613771565b5b5f613dd984828501613944565b91505092915050565b5f6020820190508181035f830152613dfa8184613d2d565b905092915050565b5f60208284031215613e1757613e16613771565b5b5f613e2484828501613798565b91505092915050565b613e36816137df565b82525050565b613e4581613864565b82525050565b5f60e082019050613e5e5f83018a6139e7565b613e6b6020830189613e2d565b613e786040830188613e3c565b613e856060830187613e3c565b613e926080830186613bff565b613e9f60a0830185613a0f565b613eac60c0830184613a0f565b98975050505050505050565b5f602082019050613ecb5f830184613e2d565b92915050565b613eda816137df565b82525050565b613ee9816137ac565b82525050565b60e082015f820151613f035f850182613a47565b506020820151613f166020850182613ed1565b506040820151613f296040850182613ed1565b506060820151613f3c6060850182613cfb565b506080820151613f4f6080850182613ee0565b5060a0820151613f6260a0850182613ee0565b5060c0820151613f7560c0850182613ee0565b50505050565b5f61028082019050613f8f5f83018b613bff565b613f9c602083018a613eef565b613faa610100830189613eef565b613fb86101e0830188613e2d565b613fc6610200830187613e2d565b613fd4610220830186613a0f565b613fe2610240830185613a0f565b613ff0610260830184613a0f565b9998505050505050505050565b5f6020820190506140105f830184613a0f565b92915050565b5f61402082613c88565b9050919050565b61403081614016565b82525050565b5f6020820190506140495f830184614027565b92915050565b5f61ffff82169050919050565b6140658161404f565b82525050565b5f60208201905061407e5f83018461405c565b92915050565b5f60e0820190506140975f83018a6139e7565b6140a46020830189613e3c565b6140b16040830188613e3c565b6140be6060830187613a0f565b81810360808301526140d08186613d2d565b90506140df60a0830185613a0f565b6140ec60c0830184613e2d565b98975050505050505050565b5f6102a08201905061410c5f83018c613bff565b614119602083018b613bff565b614126604083018a613e2d565b6141336060830189613e2d565b6141406080830188613a0f565b61414d60a0830187613a0f565b61415a60c0830186613a0f565b61416760e0830185613eef565b6141756101c0830184613eef565b9a9950505050505050505050565b5f81905092915050565b7f4368616c6c656e676500000000000000000000000000000000000000000000005f82015250565b5f6141c1600983614183565b91506141cc8261418d565b600982019050919050565b5f8160601b9050919050565b5f6141ed826141d7565b9050919050565b5f6141fe826141e3565b9050919050565b6142166142118261391d565b6141f4565b82525050565b5f819050919050565b614236614231826137ac565b61421c565b82525050565b5f614246826141b5565b91506142528285614205565b6014820191506142628284614225565b6020820191508190509392505050565b7f4e487b71000000000000000000000000000000000000000000000000000000005f52601160045260245ffd5b5f6142a982613864565b91506142b483613864565b9250828201905060ff8111156142cd576142cc614272565b5b92915050565b5f6060820190506142e65f830186613e3c565b6142f36020830185613e3c565b6143006040830184613a0f565b949350505050565b7f47616d65506f6f6c0000000000000000000000000000000000000000000000005f82015250565b5f61433c600883614183565b915061434782614308565b600882019050919050565b5f61435c82614330565b91506143688285614205565b6014820191506143788284614225565b6020820191508190509392505050565b7f4e487b71000000000000000000000000000000000000000000000000000000005f52604160045260245ffd5b7f4e487b71000000000000000000000000000000000000000000000000000000005f52603260045260245ffd5b5f6040820190506143f55f8301856139e7565b61440260208301846139e7565b9392505050565b5f82825260208201905092915050565b7f4d7573742062652070726f706f736564206f776e6572000000000000000000005f82015250565b5f61444d601683614409565b915061445882614419565b602082019050919050565b5f6020820190508181035f83015261447a81614441565b9050919050565b5f6060820190506144945f8301866139e7565b6144a160208301856139e7565b6144ae60408301846139e7565b949350505050565b5f6144c0826137ac565b91506144cb836137ac565b92508282039050818111156144e3576144e2614272565b5b92915050565b5f819050919050565b6145036144fe82613779565b6144e9565b82525050565b5f61451482886144f2565b6020820191506145248287614225565b6020820191506145348286614225565b6020820191506145448285614205565b6014820191506145548284614205565b6014820191508190509695505050505050565b5f60608201905061457a5f8301866139e7565b61458760208301856139e7565b6145946040830184613a0f565b949350505050565b7f4f6e6c792063616c6c61626c65206279206f776e6572000000000000000000005f82015250565b5f6145d0601683614409565b91506145db8261459c565b602082019050919050565b5f6020820190508181035f8301526145fd816145c4565b9050919050565b5f82825260208201905092915050565b5f5ffd5b82818337505050565b5f61462c8385614604565b93507f07ffffffffffffffffffffffffffffffffffffffffffffffffffffffffffffff83111561465f5761465e614614565b5b602083029250614670838584614618565b82840190509392505050565b5f6020820190508181035f830152614695818486614621565b90509392505050565b5f6040820190506146b15f8301856139e7565b6146be6020830184613a0f565b9392505050565b7f4e487b71000000000000000000000000000000000000000000000000000000005f52603160045260245ffd5b5f6146fc826137ac565b9150614707836137ac565b9250828202614715816137ac565b9150828204841483151761472c5761472b614272565b5b5092915050565b7f4e487b71000000000000000000000000000000000000000000000000000000005f52601260045260245ffd5b5f61476a826137ac565b9150614775836137ac565b92508261478557614784614733565b5b828204905092915050565b5f61479a826137ac565b91506147a5836137ac565b92508282019050808211156147bd576147bc614272565b5b92915050565b5f60e0820190506147d65f83018a6139e7565b6147e360208301896139e7565b6147f06040830188613a0f565b6147fd6060830187613e2d565b61480a60808301866139e7565b61481760a0830185613a0f565b61482460c0830184613a0f565b98975050505050505050565b6148398161404f565b82525050565b61484881613c27565b82525050565b5f81519050919050565b5f82825260208201905092915050565b8281835e5f83830152505050565b5f601f19601f8301169050919050565b5f6148908261484e565b61489a8185614858565b93506148aa818560208601614868565b6148b381614876565b840191505092915050565b5f60c083015f8301516148d35f860182613cfb565b5060208301516148e66020860182613ee0565b5060408301516148f96040860182614830565b50606083015161490c606086018261483f565b50608083015161491f608086018261483f565b5060a083015184820360a08601526149378282614886565b9150508091505092915050565b5f6020820190508181035f83015261495c81846148be565b905092915050565b5f81519050614972816137b5565b92915050565b5f6020828403121561498d5761498c613771565b5b5f61499a84828501614964565b91505092915050565b7f43616e6e6f74207472616e7366657220746f2073656c660000000000000000005f82015250565b5f6149d7601783614409565b91506149e2826149a3565b602082019050919050565b5f6020820190508181035f830152614a04816149cb565b9050919050565b602082015f820151614a1f5f850182613ed1565b50505050565b5f602082019050614a385f830184614a0b565b9291505056fea2646970667358221220147ffe002ab6933fe1c3b94891265edb2a47b2a835121b69baa5d783efe387b864736f6c634300081e0033","linkReferences":{}},"methodIdentifiers":{"acceptOwnership()":"79ba5097","allChallengeIds(uint256)":"5127953b","allGameIds(uint256)":"5a5cfc1c","allUserAddresses(uint256)":"12f8a6ab","baseDivider()":"e1b4db71","burnAddress()":"70d5ae05","callbackGasLimit()":"24f74697","cancelChallenge(bytes32)":"7f205caa","challenges(bytes32)":"c1e69b66","createChallenge(bytes32,uint256,bool)":"000476ba","createGame(address,uint8,uint8,uint256)":"0f23a3c1","enterChallenge(bytes32,uint256,bool)":"d526bb80","gamePools(bytes32)":"520b35a2","getAllUserAddress()":"149440d9","getChallengeIds()":"48696151","getChallengeInfo(bytes32)":"7a514775","getGameIds()":"9f668bba","getGameInfo(bytes32)":"b2c553b2","getUserHistory(address)":"4fb3d3b1","isActiveChallengeId(bytes32)":"ec018d6e","isVRF()":"fba2f442","keyHash()":"61728f39","linktoken()":"2ae7543f","numWords()":"7ccfd7fc","owner()":"8da5cb5b","pause()":"8456cb59","paused()":"5c975abb","rawFulfillRandomWords(uint256,uint256[])":"1fe543e3","requestConfirmations()":"b0fb162f","s_subscriptionId()":"8ac00021","s_vrfCoordinator()":"9eccacf6","setCoordinator(address)":"8ea98117","setGameData(bytes32,uint8,uint8,uint256)":"064436a1","setTreasury(address)":"f0f44260","setVRF()":"ad6829cf","transferOwnership(address)":"f2fde38b","treasury()":"61d027b3","unpause()":"3f4ba83a","unsetVRF()":"06559cf7","userHistory(address,uint256)":"22e8b990","withdraw(address,uint256)":"f3fef3a3"},"id":45}