{"abi":[{"type":"constructor","inputs":[{"name":"_treasury","type":"address","internalType":"address"},{"name":"subscriptionId","type":"uint256","internalType":"uint256"}],"stateMutability":"nonpayable"},{"type":"function","name":"acceptOwnership","inputs":[],"outputs":[],"stateMutability":"nonpayable"},{"type":"function","name":"activeChallengeIds","inputs":[{"name":"","type":"uint256","internalType":"uint256"}],"outputs":[{"name":"","type":"bool","internalType":"bool"}],"stateMutability":"view"},{"type":"function","name":"allChallengeIds","inputs":[{"name":"","type":"uint256","internalType":"uint256"}],"outputs":[{"name":"","type":"uint256","internalType":"uint256"}],"stateMutability":"view"},{"type":"function","name":"allGameIds","inputs":[{"name":"","type":"uint256","internalType":"uint256"}],"outputs":[{"name":"","type":"uint256","internalType":"uint256"}],"stateMutability":"view"},{"type":"function","name":"baseDivider","inputs":[],"outputs":[{"name":"","type":"uint256","internalType":"uint256"}],"stateMutability":"view"},{"type":"function","name":"burnAddress","inputs":[],"outputs":[{"name":"","type":"address","internalType":"address"}],"stateMutability":"view"},{"type":"function","name":"callbackGasLimit","inputs":[],"outputs":[{"name":"","type":"uint32","internalType":"uint32"}],"stateMutability":"view"},{"type":"function","name":"challenges","inputs":[{"name":"","type":"uint256","internalType":"uint256"}],"outputs":[{"name":"challengeId","type":"uint256","internalType":"uint256"},{"name":"gameId","type":"uint256","internalType":"uint256"},{"name":"isActive","type":"bool","internalType":"bool"},{"name":"result","type":"bool","internalType":"bool"},{"name":"xpAmount","type":"uint256","internalType":"uint256"},{"name":"createTime","type":"uint256","internalType":"uint256"},{"name":"drawTime","type":"uint256","internalType":"uint256"},{"name":"creator","type":"tuple","internalType":"struct WaveChallengeFlip.User","components":[{"name":"userAddress","type":"address","internalType":"address"},{"name":"isCreator","type":"bool","internalType":"bool"},{"name":"side","type":"bool","internalType":"bool"},{"name":"challengeId","type":"uint256","internalType":"uint256"},{"name":"xpAmount","type":"uint256","internalType":"uint256"},{"name":"betTime","type":"uint256","internalType":"uint256"},{"name":"rewardAmount","type":"uint256","internalType":"uint256"}]},{"name":"challenger","type":"tuple","internalType":"struct WaveChallengeFlip.User","components":[{"name":"userAddress","type":"address","internalType":"address"},{"name":"isCreator","type":"bool","internalType":"bool"},{"name":"side","type":"bool","internalType":"bool"},{"name":"challengeId","type":"uint256","internalType":"uint256"},{"name":"xpAmount","type":"uint256","internalType":"uint256"},{"name":"betTime","type":"uint256","internalType":"uint256"},{"name":"rewardAmount","type":"uint256","internalType":"uint256"}]}],"stateMutability":"view"},{"type":"function","name":"createChallenge","inputs":[{"name":"_gameId","type":"uint256","internalType":"uint256"},{"name":"_xpAmount","type":"uint256","internalType":"uint256"},{"name":"_side","type":"bool","internalType":"bool"}],"outputs":[],"stateMutability":"nonpayable"},{"type":"function","name":"createGame","inputs":[{"name":"_baseToken","type":"address","internalType":"address"},{"name":"_burnFee","type":"uint8","internalType":"uint8"},{"name":"_treasuryFee","type":"uint8","internalType":"uint8"},{"name":"_minTokenAmount","type":"uint256","internalType":"uint256"}],"outputs":[],"stateMutability":"nonpayable"},{"type":"function","name":"enterChallenge","inputs":[{"name":"_challengeId","type":"uint256","internalType":"uint256"},{"name":"_xpAmount","type":"uint256","internalType":"uint256"},{"name":"_side","type":"bool","internalType":"bool"}],"outputs":[],"stateMutability":"nonpayable"},{"type":"function","name":"gamePools","inputs":[{"name":"","type":"uint256","internalType":"uint256"}],"outputs":[{"name":"baseToken","type":"address","internalType":"address"},{"name":"isActive","type":"bool","internalType":"bool"},{"name":"burnFee","type":"uint8","internalType":"uint8"},{"name":"treasuryFee","type":"uint8","internalType":"uint8"},{"name":"gameId","type":"uint256","internalType":"uint256"},{"name":"totalXpAmount","type":"uint256","internalType":"uint256"},{"name":"minTokenAmount","type":"uint256","internalType":"uint256"}],"stateMutability":"view"},{"type":"function","name":"getActiveChallengeIds","inputs":[],"outputs":[{"name":"ids","type":"uint256[]","internalType":"uint256[]"}],"stateMutability":"view"},{"type":"function","name":"getChallengeDetailsBulk","inputs":[{"name":"ids","type":"uint256[]","internalType":"uint256[]"}],"outputs":[{"name":"result","type":"tuple[]","internalType":"struct WaveChallengeFlip.Challenge[]","components":[{"name":"challengeId","type":"uint256","internalType":"uint256"},{"name":"gameId","type":"uint256","internalType":"uint256"},{"name":"isActive","type":"bool","internalType":"bool"},{"name":"result","type":"bool","internalType":"bool"},{"name":"xpAmount","type":"uint256","internalType":"uint256"},{"name":"createTime","type":"uint256","internalType":"uint256"},{"name":"drawTime","type":"uint256","internalType":"uint256"},{"name":"creator","type":"tuple","internalType":"struct WaveChallengeFlip.User","components":[{"name":"userAddress","type":"address","internalType":"address"},{"name":"isCreator","type":"bool","internalType":"bool"},{"name":"side","type":"bool","internalType":"bool"},{"name":"challengeId","type":"uint256","internalType":"uint256"},{"name":"xpAmount","type":"uint256","internalType":"uint256"},{"name":"betTime","type":"uint256","internalType":"uint256"},{"name":"rewardAmount","type":"uint256","internalType":"uint256"}]},{"name":"challenger","type":"tuple","internalType":"struct WaveChallengeFlip.User","components":[{"name":"userAddress","type":"address","internalType":"address"},{"name":"isCreator","type":"bool","internalType":"bool"},{"name":"side","type":"bool","internalType":"bool"},{"name":"challengeId","type":"uint256","internalType":"uint256"},{"name":"xpAmount","type":"uint256","internalType":"uint256"},{"name":"betTime","type":"uint256","internalType":"uint256"},{"name":"rewardAmount","type":"uint256","internalType":"uint256"}]}]}],"stateMutability":"view"},{"type":"function","name":"getChallengeInfo","inputs":[{"name":"_challengeId","type":"uint256","internalType":"uint256"}],"outputs":[{"name":"","type":"uint256","internalType":"uint256"},{"name":"","type":"tuple","internalType":"struct WaveChallengeFlip.User","components":[{"name":"userAddress","type":"address","internalType":"address"},{"name":"isCreator","type":"bool","internalType":"bool"},{"name":"side","type":"bool","internalType":"bool"},{"name":"challengeId","type":"uint256","internalType":"uint256"},{"name":"xpAmount","type":"uint256","internalType":"uint256"},{"name":"betTime","type":"uint256","internalType":"uint256"},{"name":"rewardAmount","type":"uint256","internalType":"uint256"}]},{"name":"","type":"tuple","internalType":"struct WaveChallengeFlip.User","components":[{"name":"userAddress","type":"address","internalType":"address"},{"name":"isCreator","type":"bool","internalType":"bool"},{"name":"side","type":"bool","internalType":"bool"},{"name":"challengeId","type":"uint256","internalType":"uint256"},{"name":"xpAmount","type":"uint256","internalType":"uint256"},{"name":"betTime","type":"uint256","internalType":"uint256"},{"name":"rewardAmount","type":"uint256","internalType":"uint256"}]},{"name":"","type":"bool","internalType":"bool"},{"name":"","type":"bool","internalType":"bool"},{"name":"","type":"uint256","internalType":"uint256"},{"name":"","type":"uint256","internalType":"uint256"},{"name":"","type":"uint256","internalType":"uint256"}],"stateMutability":"view"},{"type":"function","name":"getGameInfo","inputs":[{"name":"_gameId","type":"uint256","internalType":"uint256"}],"outputs":[{"name":"","type":"address","internalType":"address"},{"name":"","type":"uint8","internalType":"uint8"},{"name":"","type":"uint8","internalType":"uint8"},{"name":"","type":"uint256","internalType":"uint256"},{"name":"","type":"uint256[]","internalType":"uint256[]"},{"name":"","type":"uint256","internalType":"uint256"},{"name":"","type":"bool","internalType":"bool"}],"stateMutability":"view"},{"type":"function","name":"getGamePoolDetailsBulk","inputs":[{"name":"ids","type":"uint256[]","internalType":"uint256[]"}],"outputs":[{"name":"result","type":"tuple[]","internalType":"struct WaveChallengeFlip.GamePool[]","components":[{"name":"baseToken","type":"address","internalType":"address"},{"name":"isActive","type":"bool","internalType":"bool"},{"name":"burnFee","type":"uint8","internalType":"uint8"},{"name":"treasuryFee","type":"uint8","internalType":"uint8"},{"name":"gameId","type":"uint256","internalType":"uint256"},{"name":"totalXpAmount","type":"uint256","internalType":"uint256"},{"name":"minTokenAmount","type":"uint256","internalType":"uint256"},{"name":"challengeIds","type":"uint256[]","internalType":"uint256[]"}]}],"stateMutability":"view"},{"type":"function","name":"getUserHistory","inputs":[{"name":"_user","type":"address","internalType":"address"}],"outputs":[{"name":"","type":"uint256[]","internalType":"uint256[]"}],"stateMutability":"view"},{"type":"function","name":"keyHash","inputs":[],"outputs":[{"name":"","type":"bytes32","internalType":"bytes32"}],"stateMutability":"view"},{"type":"function","name":"linktoken","inputs":[],"outputs":[{"name":"","type":"address","internalType":"contract IERC20"}],"stateMutability":"view"},{"type":"function","name":"numWords","inputs":[],"outputs":[{"name":"","type":"uint32","internalType":"uint32"}],"stateMutability":"view"},{"type":"function","name":"owner","inputs":[],"outputs":[{"name":"","type":"address","internalType":"address"}],"stateMutability":"view"},{"type":"function","name":"pause","inputs":[],"outputs":[],"stateMutability":"nonpayable"},{"type":"function","name":"paused","inputs":[],"outputs":[{"name":"","type":"bool","internalType":"bool"}],"stateMutability":"view"},{"type":"function","name":"rawFulfillRandomWords","inputs":[{"name":"requestId","type":"uint256","internalType":"uint256"},{"name":"randomWords","type":"uint256[]","internalType":"uint256[]"}],"outputs":[],"stateMutability":"nonpayable"},{"type":"function","name":"requestConfirmations","inputs":[],"outputs":[{"name":"","type":"uint16","internalType":"uint16"}],"stateMutability":"view"},{"type":"function","name":"s_subscriptionId","inputs":[],"outputs":[{"name":"","type":"uint256","internalType":"uint256"}],"stateMutability":"view"},{"type":"function","name":"s_vrfCoordinator","inputs":[],"outputs":[{"name":"","type":"address","internalType":"contract IVRFCoordinatorV2Plus"}],"stateMutability":"view"},{"type":"function","name":"setCoordinator","inputs":[{"name":"_vrfCoordinator","type":"address","internalType":"address"}],"outputs":[],"stateMutability":"nonpayable"},{"type":"function","name":"setGameData","inputs":[{"name":"_gameId","type":"uint256","internalType":"uint256"},{"name":"_burnFee","type":"uint8","internalType":"uint8"},{"name":"_treasuryFee","type":"uint8","internalType":"uint8"},{"name":"_minTokenAmount","type":"uint256","internalType":"uint256"}],"outputs":[],"stateMutability":"nonpayable"},{"type":"function","name":"setTreasury","inputs":[{"name":"_treasury","type":"address","internalType":"address"}],"outputs":[],"stateMutability":"nonpayable"},{"type":"function","name":"totalChallenges","inputs":[],"outputs":[{"name":"","type":"uint256","internalType":"uint256"}],"stateMutability":"view"},{"type":"function","name":"totalGames","inputs":[],"outputs":[{"name":"","type":"uint256","internalType":"uint256"}],"stateMutability":"view"},{"type":"function","name":"transferOwnership","inputs":[{"name":"to","type":"address","internalType":"address"}],"outputs":[],"stateMutability":"nonpayable"},{"type":"function","name":"treasury","inputs":[],"outputs":[{"name":"","type":"address","internalType":"address"}],"stateMutability":"view"},{"type":"function","name":"unpause","inputs":[],"outputs":[],"stateMutability":"nonpayable"},{"type":"function","name":"userHistory","inputs":[{"name":"","type":"address","internalType":"address"},{"name":"","type":"uint256","internalType":"uint256"}],"outputs":[{"name":"","type":"uint256","internalType":"uint256"}],"stateMutability":"view"},{"type":"function","name":"withdraw","inputs":[{"name":"_token","type":"address","internalType":"address"},{"name":"amount","type":"uint256","internalType":"uint256"}],"outputs":[],"stateMutability":"nonpayable"},{"type":"event","name":"ChallengeCreated","inputs":[{"name":"challengeId","type":"uint256","indexed":true,"internalType":"uint256"},{"name":"creator","type":"address","indexed":true,"internalType":"address"},{"name":"xpAmount","type":"uint256","indexed":false,"internalType":"uint256"}],"anonymous":false},{"type":"event","name":"ChallengeDrawRequested","inputs":[{"name":"requestId","type":"uint256","indexed":true,"internalType":"uint256"},{"name":"challengeId","type":"uint256","indexed":true,"internalType":"uint256"}],"anonymous":false},{"type":"event","name":"CoordinatorSet","inputs":[{"name":"vrfCoordinator","type":"address","indexed":false,"internalType":"address"}],"anonymous":false},{"type":"event","name":"EnteredChallenge","inputs":[{"name":"challengeId","type":"uint256","indexed":true,"internalType":"uint256"},{"name":"user","type":"address","indexed":true,"internalType":"address"},{"name":"xpAmount","type":"uint256","indexed":false,"internalType":"uint256"}],"anonymous":false},{"type":"event","name":"FallbackRandomUsed","inputs":[{"name":"challengeId","type":"uint256","indexed":true,"internalType":"uint256"}],"anonymous":false},{"type":"event","name":"GameCreated","inputs":[{"name":"gameId","type":"uint256","indexed":true,"internalType":"uint256"},{"name":"baseToken","type":"address","indexed":true,"internalType":"address"},{"name":"minTokenAmount","type":"uint256","indexed":false,"internalType":"uint256"}],"anonymous":false},{"type":"event","name":"GameDataUpdated","inputs":[{"name":"gameId","type":"uint256","indexed":true,"internalType":"uint256"},{"name":"burnFee","type":"uint8","indexed":false,"internalType":"uint8"},{"name":"treasuryFee","type":"uint8","indexed":false,"internalType":"uint8"},{"name":"minTokenAmount","type":"uint256","indexed":false,"internalType":"uint256"}],"anonymous":false},{"type":"event","name":"OwnershipTransferRequested","inputs":[{"name":"from","type":"address","indexed":true,"internalType":"address"},{"name":"to","type":"address","indexed":true,"internalType":"address"}],"anonymous":false},{"type":"event","name":"OwnershipTransferred","inputs":[{"name":"from","type":"address","indexed":true,"internalType":"address"},{"name":"to","type":"address","indexed":true,"internalType":"address"}],"anonymous":false},{"type":"event","name":"Paused","inputs":[{"name":"account","type":"address","indexed":false,"internalType":"address"}],"anonymous":false},{"type":"event","name":"PoolEnded","inputs":[{"name":"gameId","type":"uint256","indexed":true,"internalType":"uint256"}],"anonymous":false},{"type":"event","name":"RequestFulfilled","inputs":[{"name":"requestId","type":"uint256","indexed":true,"internalType":"uint256"},{"name":"randomWords","type":"uint256[]","indexed":false,"internalType":"uint256[]"}],"anonymous":false},{"type":"event","name":"RequestSent","inputs":[{"name":"requestId","type":"uint256","indexed":true,"internalType":"uint256"},{"name":"numWords","type":"uint32","indexed":false,"internalType":"uint32"}],"anonymous":false},{"type":"event","name":"TreasuryUpdated","inputs":[{"name":"newTreasury","type":"address","indexed":false,"internalType":"address"}],"anonymous":false},{"type":"event","name":"Unpaused","inputs":[{"name":"account","type":"address","indexed":false,"internalType":"address"}],"anonymous":false},{"type":"event","name":"WinnerDrawn","inputs":[{"name":"challengeId","type":"uint256","indexed":true,"internalType":"uint256"},{"name":"winner","type":"address","indexed":true,"internalType":"address"},{"name":"rewardAmount","type":"uint256","indexed":false,"internalType":"uint256"}],"anonymous":false},{"type":"error","name":"AmountMismatch","inputs":[]},{"type":"error","name":"AmountTooLow","inputs":[]},{"type":"error","name":"ChallengeEnded","inputs":[]},{"type":"error","name":"ChallengeInactive","inputs":[]},{"type":"error","name":"EnforcedPause","inputs":[]},{"type":"error","name":"ExpectedPause","inputs":[]},{"type":"error","name":"GameInactive","inputs":[]},{"type":"error","name":"InvalidFeeConfig","inputs":[]},{"type":"error","name":"InvalidTreasury","inputs":[]},{"type":"error","name":"OnlyCoordinatorCanFulfill","inputs":[{"name":"have","type":"address","internalType":"address"},{"name":"want","type":"address","internalType":"address"}]},{"type":"error","name":"OnlyOwnerOrCoordinator","inputs":[{"name":"have","type":"address","internalType":"address"},{"name":"owner","type":"address","internalType":"address"},{"name":"coordinator","type":"address","internalType":"address"}]},{"type":"error","name":"ReentrancyGuardReentrantCall","inputs":[]},{"type":"error","name":"RequestNotFound","inputs":[]},{"type":"error","name":"SafeERC20FailedOperation","inputs":[{"name":"token","type":"address","internalType":"address"}]},{"type":"error","name":"SameSideSelected","inputs":[]},{"type":"error","name":"SelfChallenge","inputs":[]},{"type":"error","name":"ZeroAddress","inputs":[]}],"bytecode":{"object":"0x60c060405234801561000f575f5ffd5b5060405161506a38038061506a833981810160405281019061003191906104b3565b739ddfaca8183c41ad55329bdeed9f6a8d53168b1b33805f600180819055505f73ffffffffffffffffffffffffffffffffffffffff168273ffffffffffffffffffffffffffffffffffffffff16036100be576040517f08c379a00000000000000000000000000000000000000000000000000000000081526004016100b59061054b565b60405180910390fd5b8160025f6101000a81548173ffffffffffffffffffffffffffffffffffffffff021916908373ffffffffffffffffffffffffffffffffffffffff1602179055505f73ffffffffffffffffffffffffffffffffffffffff168173ffffffffffffffffffffffffffffffffffffffff161461014157610140816102f660201b60201c565b5b5050505f73ffffffffffffffffffffffffffffffffffffffff168173ffffffffffffffffffffffffffffffffffffffff16036101a9576040517fd92e233d00000000000000000000000000000000000000000000000000000000815260040160405180910390fd5b8060045f6101000a81548173ffffffffffffffffffffffffffffffffffffffff021916908373ffffffffffffffffffffffffffffffffffffffff1602179055505061dead73ffffffffffffffffffffffffffffffffffffffff168273ffffffffffffffffffffffffffffffffffffffff1603610251576040517f14bcf5c800000000000000000000000000000000000000000000000000000000815260040160405180910390fd5b81600f5f6101000a81548173ffffffffffffffffffffffffffffffffffffffff021916908373ffffffffffffffffffffffffffffffffffffffff160217905550806080818152505073779877a7b0d9e8603169ddbd7836e478b462478973ffffffffffffffffffffffffffffffffffffffff1660a08173ffffffffffffffffffffffffffffffffffffffff16815250505f600d819055505f600e8190555050506105d1565b3373ffffffffffffffffffffffffffffffffffffffff168173ffffffffffffffffffffffffffffffffffffffff1603610364576040517f08c379a000000000000000000000000000000000000000000000000000000000815260040161035b906105b3565b60405180910390fd5b8060035f6101000a81548173ffffffffffffffffffffffffffffffffffffffff021916908373ffffffffffffffffffffffffffffffffffffffff1602179055508073ffffffffffffffffffffffffffffffffffffffff1660025f9054906101000a900473ffffffffffffffffffffffffffffffffffffffff1673ffffffffffffffffffffffffffffffffffffffff167fed8889f560326eb138920d842192f0eb3dd22b4f139c87a2c57538e05bae127860405160405180910390a350565b5f5ffd5b5f73ffffffffffffffffffffffffffffffffffffffff82169050919050565b5f61044f82610426565b9050919050565b61045f81610445565b8114610469575f5ffd5b50565b5f8151905061047a81610456565b92915050565b5f819050919050565b61049281610480565b811461049c575f5ffd5b50565b5f815190506104ad81610489565b92915050565b5f5f604083850312156104c9576104c8610422565b5b5f6104d68582860161046c565b92505060206104e78582860161049f565b9150509250929050565b5f82825260208201905092915050565b7f43616e6e6f7420736574206f776e657220746f207a65726f00000000000000005f82015250565b5f6105356018836104f1565b915061054082610501565b602082019050919050565b5f6020820190508181035f83015261056281610529565b9050919050565b7f43616e6e6f74207472616e7366657220746f2073656c660000000000000000005f82015250565b5f61059d6017836104f1565b91506105a882610569565b602082019050919050565b5f6020820190508181035f8301526105ca81610591565b9050919050565b60805160a051614a6a6106005f395f8181610b49015261169d01525f8181611a810152612e9e0152614a6a5ff3fe608060405234801561000f575f5ffd5b5060043610610230575f3560e01c806370d5ae051161012e5780638f1d3776116100b6578063e1b4db711161007a578063e1b4db71146106ad578063ee84ffbe146106cb578063f0f44260146106e7578063f2fde38b14610703578063f3fef3a31461071f57610230565b80638f1d3776146105eb5780639eccacf614610623578063a0005f7714610641578063b0fb162f14610671578063d17defcb1461068f57610230565b80638456cb59116100fd5780638456cb591461055257806385a994331461055c5780638ac00021146105935780638da5cb5b146105b15780638ea98117146105cf57610230565b806370d5ae05146104f057806379ba50971461050e5780637ccfd7fc146105185780637ef4ddd91461053657610230565b80633f4ba83a116101bc5780635a5cfc1c116101805780635a5cfc1c146104365780635c975abb1461046657806361728f391461048457806361d027b3146104a257806365a7e63e146104c057610230565b80633f4ba83a1461036057806347e1d5501461036a5780634d0ed9da146103a05780634fb3d3b1146103d65780635127953b1461040657610230565b806324f746971161020357806324f74697146102ba5780632ae7543f146102d85780632c4e591b146102f65780633832b585146103145780633d2fd1771461034457610230565b80630725ac00146102345780630f23a3c1146102525780631fe543e31461026e57806322e8b9901461028a575b5f5ffd5b61023c61073b565b6040516102499190613695565b60405180910390f35b61026c60048036038101906102679190613777565b6108ab565b005b6102886004803603810190610283919061383c565b610a51565b005b6102a4600480360381019061029f9190613899565b610b15565b6040516102b191906138e6565b60405180910390f35b6102c2610b40565b6040516102cf919061391d565b60405180910390f35b6102e0610b47565b6040516102ed9190613991565b60405180910390f35b6102fe610b6b565b60405161030b91906138e6565b60405180910390f35b61032e600480360381019061032991906139aa565b610b71565b60405161033b91906139ef565b60405180910390f35b61035e60048036038101906103599190613a08565b610b8e565b005b610368610c7f565b005b610384600480360381019061037f91906139aa565b610c91565b6040516103979796959493929190613a8a565b60405180910390f35b6103ba60048036038101906103b591906139aa565b610d7b565b6040516103cd9796959493929190613afe565b60405180910390f35b6103f060048036038101906103eb9190613b6b565b610dfc565b6040516103fd9190613695565b60405180910390f35b610420600480360381019061041b91906139aa565b610e8f565b60405161042d91906138e6565b60405180910390f35b610450600480360381019061044b91906139aa565b610eaf565b60405161045d91906138e6565b60405180910390f35b61046e610ecf565b60405161047b91906139ef565b60405180910390f35b61048c610ee3565b6040516104999190613bae565b60405180910390f35b6104aa610f09565b6040516104b79190613bc7565b60405180910390f35b6104da60048036038101906104d59190613be0565b610f2e565b6040516104e79190613e33565b60405180910390f35b6104f86111ef565b6040516105059190613bc7565b60405180910390f35b6105166111f5565b005b610520611386565b60405161052d919061391d565b60405180910390f35b610550600480360381019061054b9190613e7d565b61138b565b005b61055a61186c565b005b610576600480360381019061057191906139aa565b61187e565b60405161058a989796959493929190613f59565b60405180910390f35b61059b611a7f565b6040516105a891906138e6565b60405180910390f35b6105b9611aa3565b6040516105c69190613bc7565b60405180910390f35b6105e960048036038101906105e49190613b6b565b611acb565b005b610605600480360381019061060091906139aa565b611ca8565b60405161061a99989796959493929190613fdb565b60405180910390f35b61062b611e7f565b6040516106389190614086565b60405180910390f35b61065b60048036038101906106569190613be0565b611ea4565b6040516106689190614282565b60405180910390f35b610679612091565b60405161068691906142be565b60405180910390f35b610697612096565b6040516106a491906138e6565b60405180910390f35b6106b561209c565b6040516106c291906138e6565b60405180910390f35b6106e560048036038101906106e09190613e7d565b6120a1565b005b61070160048036038101906106fc9190613b6b565b612439565b005b61071d60048036038101906107189190613b6b565b61252a565b005b61073960048036038101906107349190613899565b61253e565b005b60605f5f90505f5f90505b600c805490508110156107ae57600a5f600c838154811061076a576107696142d7565b5b905f5260205f20015481526020019081526020015f205f9054906101000a900460ff16156107a157818061079d90614331565b9250505b8080600101915050610746565b508067ffffffffffffffff8111156107c9576107c8614378565b5b6040519080825280602002602001820160405280156107f75781602001602082028036833780820191505090505b5091505f5f90505f5f90505b600c805490508110156108a557600a5f600c8381548110610827576108266142d7565b5b905f5260205f20015481526020019081526020015f205f9054906101000a900460ff161561089857600c8181548110610863576108626142d7565b5b905f5260205f20015484838061087890614331565b94508151811061088b5761088a6142d7565b5b6020026020010181815250505b8080600101915050610803565b50505090565b6108b361257d565b606482846108c191906143a5565b60ff1611156108fc576040517f5601467a00000000000000000000000000000000000000000000000000000000815260040160405180910390fd5b5f600d549050600d5f81548092919061091490614331565b91905055505f60075f8381526020019081526020015f20905085815f015f6101000a81548173ffffffffffffffffffffffffffffffffffffffff021916908373ffffffffffffffffffffffffffffffffffffffff16021790555081816001018190555084815f0160156101000a81548160ff021916908360ff16021790555083815f0160166101000a81548160ff021916908360ff1602179055508281600301819055506001815f0160146101000a81548160ff021916908315150217905550600b82908060018154018082558091505060019003905f5260205f20015f90919091909150558573ffffffffffffffffffffffffffffffffffffffff16827f7dfb67e9ff596fca4da65c7eedb128cd1aac553af54b3c0cb733625a2480d8bd85604051610a4191906138e6565b60405180910390a3505050505050565b60045f9054906101000a900473ffffffffffffffffffffffffffffffffffffffff1673ffffffffffffffffffffffffffffffffffffffff163373ffffffffffffffffffffffffffffffffffffffff1614610b05573360045f9054906101000a900473ffffffffffffffffffffffffffffffffffffffff166040517f1cf993f4000000000000000000000000000000000000000000000000000000008152600401610afc9291906143d9565b60405180910390fd5b610b1083838361260e565b505050565b6009602052815f5260405f208181548110610b2e575f80fd5b905f5260205f20015f91509150505481565b620493e081565b7f000000000000000000000000000000000000000000000000000000000000000081565b600d5481565b600a602052805f5260405f205f915054906101000a900460ff1681565b610b9661257d565b610b9e6127bc565b60648284610bac91906143a5565b60ff161115610be7576040517f5601467a00000000000000000000000000000000000000000000000000000000815260040160405180910390fd5b5f60075f8681526020019081526020015f20905083815f0160156101000a81548160ff021916908360ff16021790555082815f0160166101000a81548160ff021916908360ff160217905550818160030181905550847fcf37b3418c2a49080aac8f2c6a271ede049051fe809ada366bfa85be1f0235bc858585604051610c7093929190614400565b60405180910390a25050505050565b610c8761257d565b610c8f6127fd565b565b5f5f5f5f60605f5f5f60075f8a81526020019081526020015f209050805f015f9054906101000a900473ffffffffffffffffffffffffffffffffffffffff16815f0160159054906101000a900460ff16825f0160169054906101000a900460ff168360020154846004018560030154865f0160149054906101000a900460ff1682805480602002602001604051908101604052809291908181526020018280548015610d5a57602002820191905f5260205f20905b815481526020019060010190808311610d46575b50505050509250975097509750975097509750975050919395979092949650565b6007602052805f5260405f205f91509050805f015f9054906101000a900473ffffffffffffffffffffffffffffffffffffffff1690805f0160149054906101000a900460ff1690805f0160159054906101000a900460ff1690805f0160169054906101000a900460ff16908060010154908060020154908060030154905087565b606060095f8373ffffffffffffffffffffffffffffffffffffffff1673ffffffffffffffffffffffffffffffffffffffff1681526020019081526020015f20805480602002602001604051908101604052809291908181526020018280548015610e8357602002820191905f5260205f20905b815481526020019060010190808311610e6f575b50505050509050919050565b600c8181548110610e9e575f80fd5b905f5260205f20015f915090505481565b600b8181548110610ebe575f80fd5b905f5260205f20015f915090505481565b5f5f5f9054906101000a900460ff16905090565b7f787d74caea10b2b357790d5b5247c2f63d1d91572a9846f780606e4d953677ae5f1b81565b600f5f9054906101000a900473ffffffffffffffffffffffffffffffffffffffff1681565b60608282905067ffffffffffffffff811115610f4d57610f4c614378565b5b604051908082528060200260200182016040528015610f8657816020015b610f73613405565b815260200190600190039081610f6b5790505b5090505f5f90505b838390508110156111e85760085f858584818110610faf57610fae6142d7565b5b9050602002013581526020019081526020015f20604051806101200160405290815f820154815260200160018201548152602001600282015f9054906101000a900460ff161515151581526020016002820160019054906101000a900460ff16151515158152602001600382015481526020016004820154815260200160058201548152602001600682016040518060e00160405290815f82015f9054906101000a900473ffffffffffffffffffffffffffffffffffffffff1673ffffffffffffffffffffffffffffffffffffffff1673ffffffffffffffffffffffffffffffffffffffff1681526020015f820160149054906101000a900460ff161515151581526020015f820160159054906101000a900460ff161515151581526020016001820154815260200160028201548152602001600382015481526020016004820154815250508152602001600b82016040518060e00160405290815f82015f9054906101000a900473ffffffffffffffffffffffffffffffffffffffff1673ffffffffffffffffffffffffffffffffffffffff1673ffffffffffffffffffffffffffffffffffffffff1681526020015f820160149054906101000a900460ff161515151581526020015f820160159054906101000a900460ff16151515158152602001600182015481526020016002820154815260200160038201548152602001600482015481525050815250508282815181106111d0576111cf6142d7565b5b60200260200101819052508080600101915050610f8e565b5092915050565b61dead81565b60035f9054906101000a900473ffffffffffffffffffffffffffffffffffffffff1673ffffffffffffffffffffffffffffffffffffffff163373ffffffffffffffffffffffffffffffffffffffff1614611284576040517f08c379a000000000000000000000000000000000000000000000000000000000815260040161127b9061448f565b60405180910390fd5b5f60025f9054906101000a900473ffffffffffffffffffffffffffffffffffffffff1690503360025f6101000a81548173ffffffffffffffffffffffffffffffffffffffff021916908373ffffffffffffffffffffffffffffffffffffffff1602179055505f60035f6101000a81548173ffffffffffffffffffffffffffffffffffffffff021916908373ffffffffffffffffffffffffffffffffffffffff1602179055503373ffffffffffffffffffffffffffffffffffffffff168173ffffffffffffffffffffffffffffffffffffffff167f8be0079c531659141344cd1fd0a4f28419497f9722a3daafe3b4186f6b6457e060405160405180910390a350565b600181565b6113936127bc565b61139b61285d565b5f60085f8581526020019081526020015f209050806002015f9054906101000a900460ff166113f6576040517fab291b7e00000000000000000000000000000000000000000000000000000000815260040160405180910390fd5b3373ffffffffffffffffffffffffffffffffffffffff16816006015f015f9054906101000a900473ffffffffffffffffffffffffffffffffffffffff1673ffffffffffffffffffffffffffffffffffffffff1603611480576040517f706cd38100000000000000000000000000000000000000000000000000000000815260040160405180910390fd5b806003015483146114bd576040517f55e97b0d00000000000000000000000000000000000000000000000000000000815260040160405180910390fd5b806006015f0160159054906101000a900460ff1615158215150361150d576040517fb91b3f1e00000000000000000000000000000000000000000000000000000000815260040160405180910390fd5b5f60075f836001015481526020019081526020015f2090506040518060e001604052803373ffffffffffffffffffffffffffffffffffffffff1681526020015f1515815260200184151581526020018681526020018581526020014281526020015f81525082600b015f820151815f015f6101000a81548173ffffffffffffffffffffffffffffffffffffffff021916908373ffffffffffffffffffffffffffffffffffffffff1602179055506020820151815f0160146101000a81548160ff0219169083151502179055506040820151815f0160156101000a81548160ff021916908315150217905550606082015181600101556080820151816002015560a0820151816003015560c082015181600401559050505f600a5f8781526020019081526020015f205f6101000a81548160ff02191690831515021790555061169a333086845f015f9054906101000a900473ffffffffffffffffffffffffffffffffffffffff1673ffffffffffffffffffffffffffffffffffffffff166128a3909392919063ffffffff16565b5f7f000000000000000000000000000000000000000000000000000000000000000073ffffffffffffffffffffffffffffffffffffffff166370a08231306040518263ffffffff1660e01b81526004016116f49190613bc7565b602060405180830381865afa15801561170f573d5f5f3e3d5ffd5b505050506040513d601f19601f8201168201806040525081019061173391906144c1565b90505f81036117bb575f60014361174a91906144ec565b40444230336040516020016117639594939291906145a4565b604051602081830303815290604052805190602001205f1c9050867f894dba1bd8b5765712276fd7da56d048ad6561c0b7dd55ae81bb5e04e37c53b660405160405180910390a26117b5878287612925565b5061180d565b5f6117c55f612e2b565b90508660065f8381526020019081526020015f208190555086817f26cbb1f9562e07a087445fc15c35c0f058d670b0cc3fdc4c8e363006f528bb1460405160405180910390a3505b3373ffffffffffffffffffffffffffffffffffffffff16867f2832e14335d54fbd03e8fc6bcb245417f399365719c8a4db655422e9092f377a8760405161185491906138e6565b60405180910390a3505050611867613076565b505050565b61187461257d565b61187c61307f565b565b5f61188761345a565b61188f61345a565b5f5f5f5f5f5f60085f8b81526020019081526020015f20905080600101548160060182600b01836002015f9054906101000a900460ff168460020160019054906101000a900460ff16856004015486600501548760030154866040518060e00160405290815f82015f9054906101000a900473ffffffffffffffffffffffffffffffffffffffff1673ffffffffffffffffffffffffffffffffffffffff1673ffffffffffffffffffffffffffffffffffffffff1681526020015f820160149054906101000a900460ff161515151581526020015f820160159054906101000a900460ff161515151581526020016001820154815260200160028201548152602001600382015481526020016004820154815250509650856040518060e00160405290815f82015f9054906101000a900473ffffffffffffffffffffffffffffffffffffffff1673ffffffffffffffffffffffffffffffffffffffff1673ffffffffffffffffffffffffffffffffffffffff1681526020015f820160149054906101000a900460ff161515151581526020015f820160159054906101000a900460ff1615151515815260200160018201548152602001600282015481526020016003820154815260200160048201548152505095509850985098509850985098509850985050919395975091939597565b7f000000000000000000000000000000000000000000000000000000000000000081565b5f60025f9054906101000a900473ffffffffffffffffffffffffffffffffffffffff16905090565b611ad3611aa3565b73ffffffffffffffffffffffffffffffffffffffff163373ffffffffffffffffffffffffffffffffffffffff1614158015611b5b575060045f9054906101000a900473ffffffffffffffffffffffffffffffffffffffff1673ffffffffffffffffffffffffffffffffffffffff163373ffffffffffffffffffffffffffffffffffffffff1614155b15611bc95733611b69611aa3565b60045f9054906101000a900473ffffffffffffffffffffffffffffffffffffffff166040517f061db9c1000000000000000000000000000000000000000000000000000000008152600401611bc093929190614602565b60405180910390fd5b5f73ffffffffffffffffffffffffffffffffffffffff168173ffffffffffffffffffffffffffffffffffffffff1603611c2e576040517fd92e233d00000000000000000000000000000000000000000000000000000000815260040160405180910390fd5b8060045f6101000a81548173ffffffffffffffffffffffffffffffffffffffff021916908373ffffffffffffffffffffffffffffffffffffffff1602179055507fd1a6a14209a385a964d036e404cb5cfb71f4000cdb03c9366292430787261be681604051611c9d9190613bc7565b60405180910390a150565b6008602052805f5260405f205f91509050805f015490806001015490806002015f9054906101000a900460ff16908060020160019054906101000a900460ff1690806003015490806004015490806005015490806006016040518060e00160405290815f82015f9054906101000a900473ffffffffffffffffffffffffffffffffffffffff1673ffffffffffffffffffffffffffffffffffffffff1673ffffffffffffffffffffffffffffffffffffffff1681526020015f820160149054906101000a900460ff161515151581526020015f820160159054906101000a900460ff161515151581526020016001820154815260200160028201548152602001600382015481526020016004820154815250509080600b016040518060e00160405290815f82015f9054906101000a900473ffffffffffffffffffffffffffffffffffffffff1673ffffffffffffffffffffffffffffffffffffffff1673ffffffffffffffffffffffffffffffffffffffff1681526020015f820160149054906101000a900460ff161515151581526020015f820160159054906101000a900460ff16151515158152602001600182015481526020016002820154815260200160038201548152602001600482015481525050905089565b60045f9054906101000a900473ffffffffffffffffffffffffffffffffffffffff1681565b60608282905067ffffffffffffffff811115611ec357611ec2614378565b5b604051908082528060200260200182016040528015611efc57816020015b611ee96134aa565b815260200190600190039081611ee15790505b5090505f5f90505b8383905081101561208a5760075f858584818110611f2557611f246142d7565b5b9050602002013581526020019081526020015f20604051806101000160405290815f82015f9054906101000a900473ffffffffffffffffffffffffffffffffffffffff1673ffffffffffffffffffffffffffffffffffffffff1673ffffffffffffffffffffffffffffffffffffffff1681526020015f820160149054906101000a900460ff161515151581526020015f820160159054906101000a900460ff1660ff1660ff1681526020015f820160169054906101000a900460ff1660ff1660ff1681526020016001820154815260200160028201548152602001600382015481526020016004820180548060200260200160405190810160405280929190818152602001828054801561205657602002820191905f5260205f20905b815481526020019060010190808311612042575b505050505081525050828281518110612072576120716142d7565b5b60200260200101819052508080600101915050611f04565b5092915050565b600381565b600e5481565b606481565b6120a96127bc565b6120b161285d565b5f60075f8581526020019081526020015f209050805f0160149054906101000a900460ff1661210c576040517fe76abfdd00000000000000000000000000000000000000000000000000000000815260040160405180910390fd5b806003015483101561214a576040517f1fbaba3500000000000000000000000000000000000000000000000000000000815260040160405180910390fd5b5f600e549050600e5f81548092919061216290614331565b91905055508060085f8381526020019081526020015f205f01819055508460085f8381526020019081526020015f2060010181905550600160085f8381526020019081526020015f206002015f6101000a81548160ff0219169083151502179055508360085f8381526020019081526020015f20600301819055504260085f8381526020019081526020015f20600401819055506040518060e001604052803373ffffffffffffffffffffffffffffffffffffffff16815260200160011515815260200184151581526020018281526020018581526020014281526020015f81525060085f8381526020019081526020015f206006015f820151815f015f6101000a81548173ffffffffffffffffffffffffffffffffffffffff021916908373ffffffffffffffffffffffffffffffffffffffff1602179055506020820151815f0160146101000a81548160ff0219169083151502179055506040820151815f0160156101000a81548160ff021916908315150217905550606082015181600101556080820151816002015560a0820151816003015560c082015181600401559050506001600a5f8381526020019081526020015f205f6101000a81548160ff021916908315150217905550600c81908060018154018082558091505060019003905f5260205f20015f909190919091505560075f8681526020019081526020015f2060040181908060018154018082558091505060019003905f5260205f20015f90919091909150556123db333086855f015f9054906101000a900473ffffffffffffffffffffffffffffffffffffffff1673ffffffffffffffffffffffffffffffffffffffff166128a3909392919063ffffffff16565b3373ffffffffffffffffffffffffffffffffffffffff16817f4392aedf3bdc85e85ccf5c599cb7976a5b4f7b7189118379628127df3f40b1048660405161242291906138e6565b60405180910390a35050612434613076565b505050565b61244161257d565b6124496127bc565b61dead73ffffffffffffffffffffffffffffffffffffffff168173ffffffffffffffffffffffffffffffffffffffff16036124b0576040517f14bcf5c800000000000000000000000000000000000000000000000000000000815260040160405180910390fd5b80600f5f6101000a81548173ffffffffffffffffffffffffffffffffffffffff021916908373ffffffffffffffffffffffffffffffffffffffff1602179055507f7dae230f18360d76a040c81f050aa14eb9d6dc7901b20fc5d855e2a20fe814d18160405161251f9190613bc7565b60405180910390a150565b61253261257d565b61253b816130e0565b50565b61254661257d565b61254e6127bc565b61257933828473ffffffffffffffffffffffffffffffffffffffff1661320c9092919063ffffffff16565b5050565b60025f9054906101000a900473ffffffffffffffffffffffffffffffffffffffff1673ffffffffffffffffffffffffffffffffffffffff163373ffffffffffffffffffffffffffffffffffffffff161461260c576040517f08c379a000000000000000000000000000000000000000000000000000000000815260040161260390614681565b60405180910390fd5b565b61261661285d565b60055f8481526020019081526020015f205f0160019054906101000a900460ff1661266d576040517f4b13b31e00000000000000000000000000000000000000000000000000000000815260040160405180910390fd5b600160055f8581526020019081526020015f205f015f6101000a81548160ff021916908315150217905550818160055f8681526020019081526020015f2060010191906126bb929190613506565b50827ffe2e2d779dba245964d4e3ef9b994be63856fd568bf7d3ca9e224755cb1bd54d83836040516126ee929190614707565b60405180910390a25f60065f8581526020019081526020015f205490506127528184845f818110612722576127216142d7565b5b9050602002013560085f8581526020019081526020015f20600b015f0160159054906101000a900460ff16612925565b60065f8581526020019081526020015f205f905560055f8581526020019081526020015f205f5f82015f6101000a81549060ff02191690555f820160016101000a81549060ff0219169055600182015f6127ac9190613551565b5050506127b7613076565b505050565b6127c4610ecf565b156127fb576040517fd93c066500000000000000000000000000000000000000000000000000000000815260040160405180910390fd5b565b61280561328b565b5f5f5f6101000a81548160ff0219169083151502179055507f5db9ee0a495bf2e6ff9c91a7834c1ba4fdd244a5e8aa4e537bd38aeae4b073aa6128466132cb565b6040516128539190613bc7565b60405180910390a1565b600260015403612899576040517f3ee5aeb500000000000000000000000000000000000000000000000000000000815260040160405180910390fd5b6002600181905550565b61291f848573ffffffffffffffffffffffffffffffffffffffff166323b872dd8686866040516024016128d893929190614729565b604051602081830303815290604052915060e01b6020820180517bffffffffffffffffffffffffffffffffffffffffffffffffffffffff83818316178352505050506132d2565b50505050565b5f60085f8581526020019081526020015f209050806002015f9054906101000a900460ff16612980576040517fc596169500000000000000000000000000000000000000000000000000000000815260040160405180910390fd5b5f816002015f6101000a81548160ff0219169083151502179055505f816003015490505f60075f846001015481526020019081526020015f2090505f6064825f0160159054906101000a900460ff1660ff16846129dd919061475e565b6129e791906147cc565b90505f6064835f0160169054906101000a900460ff1660ff1685612a0b919061475e565b612a1591906147cc565b90505f8183600287612a27919061475e565b612a3191906144ec565b612a3b91906144ec565b9050612a8c61dead84865f015f9054906101000a900473ffffffffffffffffffffffffffffffffffffffff1673ffffffffffffffffffffffffffffffffffffffff1661320c9092919063ffffffff16565b612afa600f5f9054906101000a900473ffffffffffffffffffffffffffffffffffffffff1683865f015f9054906101000a900473ffffffffffffffffffffffffffffffffffffffff1673ffffffffffffffffffffffffffffffffffffffff1661320c9092919063ffffffff16565b5f6001808a161490505f8815158215151490505f8115612c61578389600b01600401819055505f8960020160016101000a81548160ff021916908315150217905550612bae89600b015f015f9054906101000a900473ffffffffffffffffffffffffffffffffffffffff1685895f015f9054906101000a900473ffffffffffffffffffffffffffffffffffffffff1673ffffffffffffffffffffffffffffffffffffffff1661320c9092919063ffffffff16565b60095f8a600b015f015f9054906101000a900473ffffffffffffffffffffffffffffffffffffffff1673ffffffffffffffffffffffffffffffffffffffff1673ffffffffffffffffffffffffffffffffffffffff1681526020019081526020015f208c908060018154018082558091505060019003905f5260205f20015f909190919091505588600b015f015f9054906101000a900473ffffffffffffffffffffffffffffffffffffffff169050612dab565b83896006016004018190555060018960020160016101000a81548160ff021916908315150217905550612cfc896006015f015f9054906101000a900473ffffffffffffffffffffffffffffffffffffffff1685895f015f9054906101000a900473ffffffffffffffffffffffffffffffffffffffff1673ffffffffffffffffffffffffffffffffffffffff1661320c9092919063ffffffff16565b60095f8a6006015f015f9054906101000a900473ffffffffffffffffffffffffffffffffffffffff1673ffffffffffffffffffffffffffffffffffffffff1673ffffffffffffffffffffffffffffffffffffffff1681526020019081526020015f208c908060018154018082558091505060019003905f5260205f20015f9091909190915055886006015f015f9054906101000a900473ffffffffffffffffffffffffffffffffffffffff1690505b42896005018190555087876002015f828254612dc791906147fc565b925050819055508073ffffffffffffffffffffffffffffffffffffffff168c7f9c1e776cbdf221420917b223eb09503e61c8e990a1c09065cbf15bdff06a555e86604051612e1591906138e6565b60405180910390a3505050505050505050505050565b5f60045f9054906101000a900473ffffffffffffffffffffffffffffffffffffffff1673ffffffffffffffffffffffffffffffffffffffff16639b1c385e6040518060c001604052807f787d74caea10b2b357790d5b5247c2f63d1d91572a9846f780606e4d953677ae5f1b81526020017f00000000000000000000000000000000000000000000000000000000000000008152602001600361ffff168152602001620493e063ffffffff168152602001600163ffffffff168152602001612f02604051806020016040528088151581525061336d565b8152506040518263ffffffff1660e01b8152600401612f219190614952565b6020604051808303815f875af1158015612f3d573d5f5f3e3d5ffd5b505050506040513d601f19601f82011682018060405250810190612f6191906144c1565b905060405180606001604052805f151581526020016001151581526020015f67ffffffffffffffff811115612f9957612f98614378565b5b604051908082528060200260200182016040528015612fc75781602001602082028036833780820191505090505b5081525060055f8381526020019081526020015f205f820151815f015f6101000a81548160ff0219169083151502179055506020820151815f0160016101000a81548160ff021916908315150217905550604082015181600101908051906020019061303492919061356f565b50905050807fcc58b13ad3eab50626c6a6300b1d139cd6ebb1688a7cced9461c2f7e762665ee6001604051613069919061391d565b60405180910390a2919050565b60018081905550565b6130876127bc565b60015f5f6101000a81548160ff0219169083151502179055507f62e78cea01bee320cd4e420270b5ea74000d11b0c9f74754ebdbfc544b05a2586130c96132cb565b6040516130d69190613bc7565b60405180910390a1565b3373ffffffffffffffffffffffffffffffffffffffff168173ffffffffffffffffffffffffffffffffffffffff160361314e576040517f08c379a0000000000000000000000000000000000000000000000000000000008152600401613145906149bc565b60405180910390fd5b8060035f6101000a81548173ffffffffffffffffffffffffffffffffffffffff021916908373ffffffffffffffffffffffffffffffffffffffff1602179055508073ffffffffffffffffffffffffffffffffffffffff1660025f9054906101000a900473ffffffffffffffffffffffffffffffffffffffff1673ffffffffffffffffffffffffffffffffffffffff167fed8889f560326eb138920d842192f0eb3dd22b4f139c87a2c57538e05bae127860405160405180910390a350565b613286838473ffffffffffffffffffffffffffffffffffffffff1663a9059cbb858560405160240161323f9291906149da565b604051602081830303815290604052915060e01b6020820180517bffffffffffffffffffffffffffffffffffffffffffffffffffffffff83818316178352505050506132d2565b505050565b613293610ecf565b6132c9576040517f8dfc202b00000000000000000000000000000000000000000000000000000000815260040160405180910390fd5b565b5f33905090565b5f5f60205f8451602086015f885af1806132f1576040513d5f823e3d81fd5b3d92505f519150505f821461330a576001811415613325565b5f8473ffffffffffffffffffffffffffffffffffffffff163b145b1561336757836040517f5274afe700000000000000000000000000000000000000000000000000000000815260040161335e9190613bc7565b60405180910390fd5b50505050565b60607f92fd13387c7fe7befbc38d303d6468778fb9731bc4583f17d92989c6fcfdeaaa826040516024016133a19190614a1b565b604051602081830303815290604052907bffffffffffffffffffffffffffffffffffffffffffffffffffffffff19166020820180517bffffffffffffffffffffffffffffffffffffffffffffffffffffffff83818316178352505050509050919050565b6040518061012001604052805f81526020015f81526020015f151581526020015f151581526020015f81526020015f81526020015f815260200161344761345a565b815260200161345461345a565b81525090565b6040518060e001604052805f73ffffffffffffffffffffffffffffffffffffffff1681526020015f151581526020015f151581526020015f81526020015f81526020015f81526020015f81525090565b6040518061010001604052805f73ffffffffffffffffffffffffffffffffffffffff1681526020015f151581526020015f60ff1681526020015f60ff1681526020015f81526020015f81526020015f8152602001606081525090565b828054828255905f5260205f20908101928215613540579160200282015b8281111561353f578235825591602001919060010190613524565b5b50905061354d91906135ba565b5090565b5080545f8255905f5260205f209081019061356c91906135ba565b50565b828054828255905f5260205f209081019282156135a9579160200282015b828111156135a857825182559160200191906001019061358d565b5b5090506135b691906135ba565b5090565b5b808211156135d1575f815f9055506001016135bb565b5090565b5f81519050919050565b5f82825260208201905092915050565b5f819050602082019050919050565b5f819050919050565b613610816135fe565b82525050565b5f6136218383613607565b60208301905092915050565b5f602082019050919050565b5f613643826135d5565b61364d81856135df565b9350613658836135ef565b805f5b8381101561368857815161366f8882613616565b975061367a8361362d565b92505060018101905061365b565b5085935050505092915050565b5f6020820190508181035f8301526136ad8184613639565b905092915050565b5f5ffd5b5f5ffd5b5f73ffffffffffffffffffffffffffffffffffffffff82169050919050565b5f6136e6826136bd565b9050919050565b6136f6816136dc565b8114613700575f5ffd5b50565b5f81359050613711816136ed565b92915050565b5f60ff82169050919050565b61372c81613717565b8114613736575f5ffd5b50565b5f8135905061374781613723565b92915050565b613756816135fe565b8114613760575f5ffd5b50565b5f813590506137718161374d565b92915050565b5f5f5f5f6080858703121561378f5761378e6136b5565b5b5f61379c87828801613703565b94505060206137ad87828801613739565b93505060406137be87828801613739565b92505060606137cf87828801613763565b91505092959194509250565b5f5ffd5b5f5ffd5b5f5ffd5b5f5f83601f8401126137fc576137fb6137db565b5b8235905067ffffffffffffffff811115613819576138186137df565b5b602083019150836020820283011115613835576138346137e3565b5b9250929050565b5f5f5f60408486031215613853576138526136b5565b5b5f61386086828701613763565b935050602084013567ffffffffffffffff811115613881576138806136b9565b5b61388d868287016137e7565b92509250509250925092565b5f5f604083850312156138af576138ae6136b5565b5b5f6138bc85828601613703565b92505060206138cd85828601613763565b9150509250929050565b6138e0816135fe565b82525050565b5f6020820190506138f95f8301846138d7565b92915050565b5f63ffffffff82169050919050565b613917816138ff565b82525050565b5f6020820190506139305f83018461390e565b92915050565b5f819050919050565b5f61395961395461394f846136bd565b613936565b6136bd565b9050919050565b5f61396a8261393f565b9050919050565b5f61397b82613960565b9050919050565b61398b81613971565b82525050565b5f6020820190506139a45f830184613982565b92915050565b5f602082840312156139bf576139be6136b5565b5b5f6139cc84828501613763565b91505092915050565b5f8115159050919050565b6139e9816139d5565b82525050565b5f602082019050613a025f8301846139e0565b92915050565b5f5f5f5f60808587031215613a2057613a1f6136b5565b5b5f613a2d87828801613763565b9450506020613a3e87828801613739565b9350506040613a4f87828801613739565b9250506060613a6087828801613763565b91505092959194509250565b613a75816136dc565b82525050565b613a8481613717565b82525050565b5f60e082019050613a9d5f83018a613a6c565b613aaa6020830189613a7b565b613ab76040830188613a7b565b613ac460608301876138d7565b8181036080830152613ad68186613639565b9050613ae560a08301856138d7565b613af260c08301846139e0565b98975050505050505050565b5f60e082019050613b115f83018a613a6c565b613b1e60208301896139e0565b613b2b6040830188613a7b565b613b386060830187613a7b565b613b4560808301866138d7565b613b5260a08301856138d7565b613b5f60c08301846138d7565b98975050505050505050565b5f60208284031215613b8057613b7f6136b5565b5b5f613b8d84828501613703565b91505092915050565b5f819050919050565b613ba881613b96565b82525050565b5f602082019050613bc15f830184613b9f565b92915050565b5f602082019050613bda5f830184613a6c565b92915050565b5f5f60208385031215613bf657613bf56136b5565b5b5f83013567ffffffffffffffff811115613c1357613c126136b9565b5b613c1f858286016137e7565b92509250509250929050565b5f81519050919050565b5f82825260208201905092915050565b5f819050602082019050919050565b613c5d816139d5565b82525050565b613c6c816136dc565b82525050565b60e082015f820151613c865f850182613c63565b506020820151613c996020850182613c54565b506040820151613cac6040850182613c54565b506060820151613cbf6060850182613607565b506080820151613cd26080850182613607565b5060a0820151613ce560a0850182613607565b5060c0820151613cf860c0850182613607565b50505050565b6102a082015f820151613d135f850182613607565b506020820151613d266020850182613607565b506040820151613d396040850182613c54565b506060820151613d4c6060850182613c54565b506080820151613d5f6080850182613607565b5060a0820151613d7260a0850182613607565b5060c0820151613d8560c0850182613607565b5060e0820151613d9860e0850182613c72565b50610100820151613dad6101c0850182613c72565b50505050565b5f613dbe8383613cfe565b6102a08301905092915050565b5f602082019050919050565b5f613de182613c2b565b613deb8185613c35565b9350613df683613c45565b805f5b83811015613e26578151613e0d8882613db3565b9750613e1883613dcb565b925050600181019050613df9565b5085935050505092915050565b5f6020820190508181035f830152613e4b8184613dd7565b905092915050565b613e5c816139d5565b8114613e66575f5ffd5b50565b5f81359050613e7781613e53565b92915050565b5f5f5f60608486031215613e9457613e936136b5565b5b5f613ea186828701613763565b9350506020613eb286828701613763565b9250506040613ec386828701613e69565b9150509250925092565b60e082015f820151613ee15f850182613c63565b506020820151613ef46020850182613c54565b506040820151613f076040850182613c54565b506060820151613f1a6060850182613607565b506080820151613f2d6080850182613607565b5060a0820151613f4060a0850182613607565b5060c0820151613f5360c0850182613607565b50505050565b5f61028082019050613f6d5f83018b6138d7565b613f7a602083018a613ecd565b613f88610100830189613ecd565b613f966101e08301886139e0565b613fa46102008301876139e0565b613fb26102208301866138d7565b613fc06102408301856138d7565b613fce6102608301846138d7565b9998505050505050505050565b5f6102a082019050613fef5f83018c6138d7565b613ffc602083018b6138d7565b614009604083018a6139e0565b61401660608301896139e0565b61402360808301886138d7565b61403060a08301876138d7565b61403d60c08301866138d7565b61404a60e0830185613ecd565b6140586101c0830184613ecd565b9a9950505050505050505050565b5f61407082613960565b9050919050565b61408081614066565b82525050565b5f6020820190506140995f830184614077565b92915050565b5f81519050919050565b5f82825260208201905092915050565b5f819050602082019050919050565b6140d181613717565b82525050565b5f82825260208201905092915050565b5f6140f1826135d5565b6140fb81856140d7565b9350614106836135ef565b805f5b8381101561413657815161411d8882613616565b97506141288361362d565b925050600181019050614109565b5085935050505092915050565b5f61010083015f8301516141595f860182613c63565b50602083015161416c6020860182613c54565b50604083015161417f60408601826140c8565b50606083015161419260608601826140c8565b5060808301516141a56080860182613607565b5060a08301516141b860a0860182613607565b5060c08301516141cb60c0860182613607565b5060e083015184820360e08601526141e382826140e7565b9150508091505092915050565b5f6141fb8383614143565b905092915050565b5f602082019050919050565b5f6142198261409f565b61422381856140a9565b935083602082028501614235856140b9565b805f5b85811015614270578484038952815161425185826141f0565b945061425c83614203565b925060208a01995050600181019050614238565b50829750879550505050505092915050565b5f6020820190508181035f83015261429a818461420f565b905092915050565b5f61ffff82169050919050565b6142b8816142a2565b82525050565b5f6020820190506142d15f8301846142af565b92915050565b7f4e487b71000000000000000000000000000000000000000000000000000000005f52603260045260245ffd5b7f4e487b71000000000000000000000000000000000000000000000000000000005f52601160045260245ffd5b5f61433b826135fe565b91507fffffffffffffffffffffffffffffffffffffffffffffffffffffffffffffffff820361436d5761436c614304565b5b600182019050919050565b7f4e487b71000000000000000000000000000000000000000000000000000000005f52604160045260245ffd5b5f6143af82613717565b91506143ba83613717565b9250828201905060ff8111156143d3576143d2614304565b5b92915050565b5f6040820190506143ec5f830185613a6c565b6143f96020830184613a6c565b9392505050565b5f6060820190506144135f830186613a7b565b6144206020830185613a7b565b61442d60408301846138d7565b949350505050565b5f82825260208201905092915050565b7f4d7573742062652070726f706f736564206f776e6572000000000000000000005f82015250565b5f614479601683614435565b915061448482614445565b602082019050919050565b5f6020820190508181035f8301526144a68161446d565b9050919050565b5f815190506144bb8161374d565b92915050565b5f602082840312156144d6576144d56136b5565b5b5f6144e3848285016144ad565b91505092915050565b5f6144f6826135fe565b9150614501836135fe565b925082820390508181111561451957614518614304565b5b92915050565b5f819050919050565b61453961453482613b96565b61451f565b82525050565b5f819050919050565b614559614554826135fe565b61453f565b82525050565b5f8160601b9050919050565b5f6145758261455f565b9050919050565b5f6145868261456b565b9050919050565b61459e614599826136dc565b61457c565b82525050565b5f6145af8288614528565b6020820191506145bf8287614548565b6020820191506145cf8286614548565b6020820191506145df828561458d565b6014820191506145ef828461458d565b6014820191508190509695505050505050565b5f6060820190506146155f830186613a6c565b6146226020830185613a6c565b61462f6040830184613a6c565b949350505050565b7f4f6e6c792063616c6c61626c65206279206f776e6572000000000000000000005f82015250565b5f61466b601683614435565b915061467682614637565b602082019050919050565b5f6020820190508181035f8301526146988161465f565b9050919050565b5f5ffd5b82818337505050565b5f6146b783856135df565b93507f07ffffffffffffffffffffffffffffffffffffffffffffffffffffffffffffff8311156146ea576146e961469f565b5b6020830292506146fb8385846146a3565b82840190509392505050565b5f6020820190508181035f8301526147208184866146ac565b90509392505050565b5f60608201905061473c5f830186613a6c565b6147496020830185613a6c565b61475660408301846138d7565b949350505050565b5f614768826135fe565b9150614773836135fe565b9250828202614781816135fe565b9150828204841483151761479857614797614304565b5b5092915050565b7f4e487b71000000000000000000000000000000000000000000000000000000005f52601260045260245ffd5b5f6147d6826135fe565b91506147e1836135fe565b9250826147f1576147f061479f565b5b828204905092915050565b5f614806826135fe565b9150614811836135fe565b925082820190508082111561482957614828614304565b5b92915050565b61483881613b96565b82525050565b614847816142a2565b82525050565b614856816138ff565b82525050565b5f81519050919050565b5f82825260208201905092915050565b8281835e5f83830152505050565b5f601f19601f8301169050919050565b5f61489e8261485c565b6148a88185614866565b93506148b8818560208601614876565b6148c181614884565b840191505092915050565b5f60c083015f8301516148e15f86018261482f565b5060208301516148f46020860182613607565b506040830151614907604086018261483e565b50606083015161491a606086018261484d565b50608083015161492d608086018261484d565b5060a083015184820360a08601526149458282614894565b9150508091505092915050565b5f6020820190508181035f83015261496a81846148cc565b905092915050565b7f43616e6e6f74207472616e7366657220746f2073656c660000000000000000005f82015250565b5f6149a6601783614435565b91506149b182614972565b602082019050919050565b5f6020820190508181035f8301526149d38161499a565b9050919050565b5f6040820190506149ed5f830185613a6c565b6149fa60208301846138d7565b9392505050565b602082015f820151614a155f850182613c54565b50505050565b5f602082019050614a2e5f830184614a01565b9291505056fea26469706673582212206cbba197d9c68f502b2dc304ee1aeaf1791a8e9205633bea05e3b46c4faa60d464736f6c634300081e0033","linkReferences":{}},"methodIdentifiers":{"acceptOwnership()":"79ba5097","activeChallengeIds(uint256)":"3832b585","allChallengeIds(uint256)":"5127953b","allGameIds(uint256)":"5a5cfc1c","baseDivider()":"e1b4db71","burnAddress()":"70d5ae05","callbackGasLimit()":"24f74697","challenges(uint256)":"8f1d3776","createChallenge(uint256,uint256,bool)":"ee84ffbe","createGame(address,uint8,uint8,uint256)":"0f23a3c1","enterChallenge(uint256,uint256,bool)":"7ef4ddd9","gamePools(uint256)":"4d0ed9da","getActiveChallengeIds()":"0725ac00","getChallengeDetailsBulk(uint256[])":"65a7e63e","getChallengeInfo(uint256)":"85a99433","getGameInfo(uint256)":"47e1d550","getGamePoolDetailsBulk(uint256[])":"a0005f77","getUserHistory(address)":"4fb3d3b1","keyHash()":"61728f39","linktoken()":"2ae7543f","numWords()":"7ccfd7fc","owner()":"8da5cb5b","pause()":"8456cb59","paused()":"5c975abb","rawFulfillRandomWords(uint256,uint256[])":"1fe543e3","requestConfirmations()":"b0fb162f","s_subscriptionId()":"8ac00021","s_vrfCoordinator()":"9eccacf6","setCoordinator(address)":"8ea98117","setGameData(uint256,uint8,uint8,uint256)":"3d2fd177","setTreasury(address)":"f0f44260","totalChallenges()":"d17defcb","totalGames()":"2c4e591b","transferOwnership(address)":"f2fde38b","treasury()":"61d027b3","unpause()":"3f4ba83a","userHistory(address,uint256)":"22e8b990","withdraw(address,uint256)":"f3fef3a3"},"id":34}